:020000040800F2
:10000000480E002069020008D3320008C32D000802
:10001000D132000831060008E93D00080000000068
:100020000000000000000000000000002136000871
:10003000C907000800000000D53300082336000877
:10004000830200088302000883020008830200087C
:10005000830200088302000883020008830200086C
:1000600083020008830200088302000835060008A6
:10007000830200088302000883020008830200084C
:10008000830200088302000883020008830200083C
:10009000830200088302000883020008CD070008DD
:1000A000830200088302000883020008830200081C
:1000B000CD36000883020008D93600088302000804
:1000C00083020008830200088302000883020008FC
:1000D00083020008830200088302000883020008EC
:1000E00083020008830200088302000883020008DC
:1000F000830200088302000883020008410600080A
:100100008302000883020008E53600088302000825
:1001100083020008D1390008F13600088302000884
:100120004D060008830200088302000883020008CD
:10013000830200088302000883020008830200088B
:10014000830200088302000883020008830200087B
:10015000830200088302000883020008830200086B
:10016000830200088302000883020008830200085B
:1001700083020008830200088302000800000000D8
:10018000830200088302000800F002F800F05CF827
:100190000AA090E8000C82448344AAF10107DA45E2
:1001A00001D100F051F8AFF2090EBAE80F0013F0D8
:1001B000010F18BFFB1A43F001031847FC6700004A
:1001C0001C6800000A444FF0000C10F8013B13F0CB
:1001D000070408BF10F8014B1D1108BF10F8015BA0
:1001E000641E05D010F8016B641E01F8016BF9D193
:1001F00013F0080F1EBF10F8014BAD1C0C1B09D1EA
:100200006D1E58BF01F801CBFAD505E014F8016B5B
:1002100001F8016B6D1EF9D59142D6D370470000ED
:100220000023002400250026103A28BF78C1FBD8FF
:10023000520728BF30C148BF0B6070471FB506F09A
:10024000C4FA1FBD10B510BD00F0E2F81146FFF76B
:10025000F5FF05F045F800F000F903B4FFF7F2FFF1
:1002600003BC00F003F90000094880470948004733
:10027000FEE7FEE7FEE7FEE7FEE7FEE7FEE7FEE756
:10028000FEE7FEE704480549054A064B70470000B3
:10029000BD3600088901000848080020480E0020EB
:1002A000480A0020480A002053EA020C00F0698046
:1002B0002DE9F04B4FF00006002B1FBFB3FA83F57A
:1002C00003FA05F424FA05F65E4012BF1643B2FAAB
:1002D00082F502FA05F4C5F120051EBF22FA05FCDD
:1002E00044EA0C04203556EA044C4FEA144418BF83
:1002F000641C4FF000084FF00009904271EB030CB2
:1003000039D3002919BFB1FA81F701FA07F6B0FA1B
:1003100080F700FA07F6C7F120071EBF20FA07FC96
:1003200046EA0C062037B6FBF4FCA7EB0507103FA6
:1003300007F01F0BCBF120060CFA0BFB2CFA06F68C
:1003400044BFB3460026202FA4BF5E464FF0000BEB
:100350005BEA060C08BF4FF0010B19EB0B09ABFB76
:10036000027C48EB0608C01B06FB02CC0BFB03CC4F
:1003700071EB0C01C1E70B46024641464846BDE819
:10038000F08B13B54FF000004FF00001AFF3008089
:10039000BDE81C4070474FF0000200B5134694467C
:1003A0009646203922BFA0E80C50A0E80C50B1F1CD
:1003B0002001BFF4F7AF090728BFA0E80C5048BFE1
:1003C0000CC05DF804EB890028BF40F8042B08BF7F
:1003D000704748BF20F8022B11F0804F18BF00F87B
:1003E000012B704770477047704710B500F008F850
:1003F000006810BD10B5044600F002F8046010BD9E
:1004000000487047E807002000487047E8070020D0
:100410007546FFF7F9FFAE4605006946534620F0E2
:100420000700854618B020B5FFF72CFFBDE8204037
:100430004FF000064FF000074FF000084FF0000BA0
:1004400021F00701AC46ACE8C009ACE8C009ACE853
:10045000C009ACE8C0098D46704710B50446AFF33B
:1004600000802046BDE81040FFF7F7BE0149182084
:10047000ABBEFEE726000200704710B50146806B58
:10048000026C12F0500F05D0026CD20626D500F097
:1004900029FB10BD016C41F40071016401688A6898
:1004A00012F0405F17D1027EAAB9CA6A12F4700F27
:1004B00002D08A6852050ED44A6822F020024A60AF
:1004C000016C21F480710164016CC90403D4016CD6
:1004D00041F00101016400F003FB10BD806BC26CB0
:1004E000BDE810400846104710B5806B40210164FC
:1004F000416C41F00401416400F0F4FA10BD10B504
:10050000806B00F0EEFA10BD464910B54A6822F43F
:1005100040324A604A6843681A434A6001684A6840
:1005200022F480724A6001684A68036942EA032241
:100530004A6001684A6822F040724A6001684A686D
:1005400083681A434A6001688A6822F400628A60FC
:1005500001688A68C3681A438A60816A6FF07062B2
:10056000D14201688A6822F070628A6001688A68F4
:100570000CD0836A1A438A6001688A6822F040526C
:100580008A6001688A68C36A1A4301E022F0405217
:100590008A6001688A6822F002028A6001688A68BB
:1005A000037E42EA43028A6090F820100029016825
:1005B0004A680FD042F400624A6001684A6822F437
:1005C00060424A6001684A68174C436A04EB43334F
:1005D0001A4301E022F400624A600168CA6A22F408
:1005E0007002CA620168CA6A838B104C04EB035321
:1005F0001A43CA6201688A6822F400728A6001683C
:100600008A6890F8303042EA43228A6001688A683A
:1006100022F480628A6001688A68406942EA802028
:10062000886010BD0023014000E0FFFF0000F0FFE4
:10063000FEE70000014800F051BC00000807002060
:10064000014800F04BBC000068070020014800F0A2
:1006500045BC0000A806002001681823CAB2103A61
:10066000B2FBF3F2054B6FF30901032A9B5CC365F0
:1006700000D9091D8165084670470000CE68000852
:1006800010B5014600208B698A6A4FF0C07453B1DF
:10069000B3F5005F15D072B1012A0CD0022A0AD03E
:1006A000032A09D104E01AB1012A06D0022A03D193
:1006B000C96AC90100D5012010BDC96AA142FAD09A
:1006C00010BD002AF7D0012AF2D0022AF3D0032A63
:1006D000F3D010BD30B50468256825F48025256069
:1006E000046863608368402B036803D099600068E6
:1006F000C26030BD9A600068C16030BD2DE9F04134
:100700002E4C2F4DA079012801D010B106E0012216
:1007100000E000220121284600F0CDFE207A0128C9
:1007200001D038B110E001220421284600F0C3FEB8
:10073000012205E000220421284600F0BCFE002230
:100740001021284600F0B7FEE079012801D010B151
:1007500006E0012200E000220421284600F0ABFE62
:10076000607A4FF40047DFF85C80FE03012814D064
:10077000002810D100220821284600F09CFE00220B
:100780001021284600F097FE00223946404600F02E
:1007900092FE0020B063BDE8F081012208212846C6
:1007A00000F089FE01221021284600F084FE01227B
:1007B0003946404600F07FFE6069EBE7000000200C
:1007C00000080240000C02407047000010B5802174
:1007D000064800F06BFE012803D105480168491C5A
:1007E0000160BDE81040802000F05CBD000C0240BC
:1007F000C000002072B6FEE7002229B101291AD0FC
:1008000002291BD04FF440720E490B6823F4407349
:100810000B600B6813430B600A6822F0F8020A6051
:100820000A68022303EBC00002430A60086840F430
:100830008030086070474FF48072E5E74FF4007233
:10084000E2E70000103C0240064A136823F44073BC
:10085000136013681360136843F0010313600170A1
:1008600070470000103C0240094910B50C6824F4A0
:1008700040740C600C6844F440740C600C6844F0E4
:1008800001040C600260BFF36F8F436010BD000075
:10089000103C0240074A136823F440731360136846
:1008A00043F480731360136843F001031360018005
:1008B00070470000103C0240074A136823F440735D
:1008C0001360136843F400731360136843F001036B
:1008D0001360016070470000103C0240174908682F
:1008E000C206174805D5C26942F01002C261102243
:1008F0000A600A68920605D5C26942F00802C26120
:1009000020220A600A68520605D5C26942F0040234
:10091000C26140220A600A68120605D5C26942F027
:100920000202C26180220A600A68920705D5C26984
:1009300042F02002C2610220086070470C3C024075
:10094000C807002070B5114904460020C86100F0B6
:10095000B7FD06460E4D09E0601C07D024B100F03B
:10096000AFFD801BA04201D9032070BD2868C003E1
:10097000F2D42868C00701D001202860286810F050
:10098000F200F2D0FFF7AAFF012070BDC8070020D7
:100990000C3C024078B50024009490F83C20012AD9
:1009A00019D0012280F83C200A6807230568092A2B
:1009B00013D9EE680A3A02EB420293409E43EE607E
:1009C0000B788A680A3B03EB43039A400368DD68AF
:1009D0002A43DA6010E0022078BD2E6902EB420261
:1009E00093409E432E610B788A6803EB43039A4041
:1009F00003681D692A431A614A681F23072A13D214
:100A000005686E6B521E02EB820293409E436E633A
:100A10000B790A885B1E92B203EB83039A4003684A
:100A20005D6B2A435A6327E005680D2A12D22E6BAC
:100A3000D21F02EB820293409E432E630B790A88F9
:100A4000DB1F92B203EB83039A4003681D6B2A43BA
:100A50001A6311E0EE6A0D3A02EB820293409E4364
:100A6000EE620B790A880D3B92B203EB83039A4046
:100A70000368DD6A2A43DA62164B0568144A9D4210
:100A800006D10D68122D03D1556845F480055560D7
:100A900005689D4218D10B68102B01D0112B13D182
:100AA000536843F400035360096810290CD10A49C4
:100AB0000A4A0968B1FBF2F101EB8101490000E04B
:100AC000491E00910029FBD180F83C40002078BDF0
:100AD00000230140002001408C01002040420F0013
:100AE00070477047704770B504004FF0000503D0A1
:100AF000206C002610B107E0012070BD204600F0F8
:100B00001DF8666484F83C60206CC00610D4206C2C
:100B100020F4885040F0020020642046FFF7F4FCE7
:100B20006664206C20F0020040F00100206400E0C8
:100B3000012584F83C60284670BD000070B586B081
:100B4000064614216846FFF726FC1D493068884296
:100B500034D11C480025016841F4807101600068AF
:100B600000F48070059017481438016841F00101C5
:100B700001600068694600F0010005907020009057
:100B80000320CDE90105104800F098FB104C0F48F8
:100B9000C4E900050015A560C4E903504000606188
:100BA0008000A0614011C4E907052046656200F09D
:100BB00065FA08B1FFF71EFEB463A66306B070BD08
:100BC000002001404438024000000240106402400E
:100BD000A806002018B50021009190F83C20012AB9
:100BE00007D0012280F83C2002689368DB0702D01E
:100BF00011E0022018BD936843F0010393602E4A70
:100C00002E4B1268B2FBF3F202EB420200E0521EDE
:100C10000092002AFBD102689368DB0742D0036C84
:100C200040F20164A34343F48073036453685B059B
:100C300005D5036C23F4005343F480530364036C21
:100C4000DB0404D5436C23F00603436400E04164F5
:100C500080F83C101A496FF022031360496800685D
:100C6000CA06184906D0884224D1816811F0405F35
:100C700013D01FE08842F8D0134A904203D1D1F834
:100C80000423D206F1D0114A904213D1D1F80413B3
:100C900001F01F011029E8D30CE0816841F0804188
:100CA000816007E0016C41F010010164416C41F08A
:100CB00001014164002018BD8C01002040420F005A
:100CC000002301400020014000210140002201409A
:100CD000F8B5044600200E46009094F83C10012917
:100CE00007D0012184F83C1021688B68DB0702D013
:100CF00011E00220F8BD8B6843F001038B6040498E
:100D0000404B0968B1FBF3F101EB410100E0491EE2
:100D100000910029FBD121688B68DB0503D58B6826
:100D200023F480738B6021688B68DB075DD0236CB4
:100D300040F20165AB4343F480732364496849057D
:100D400005D5216C21F4005141F480512164216CBE
:100D5000C90404D5616C21F00601616400E060649F
:100D600084F83C00A16B2948274DC863A16B284833
:100D70000864A16B2748C86421686FF022000860EE
:100D80002068416841F0806141602068816841F4D9
:100D9000807181602168134632464C31A06B00F0AF
:100DA000D7F968681C49C006206806D0884224D15B
:100DB000816811F0405F13D01FE08842F8D0174AD5
:100DC000904203D1D1F80423D206F1D0144A9042C4
:100DD00013D1D1F8041301F01F011029E8D30CE05E
:100DE000816841F08041816007E0206C40F0100094
:100DF0002064606C40F0010060640020F8BD0000D9
:100E00008C01002040420F00002301407B040008B9
:100E1000FF040008E904000800200140002101400F
:100E2000002201402DE9F0410446876D00F048FBA7
:100E3000064694F835000025022806D0802060651B
:100E400084F834500120BDE8F0812068016821F069
:100E5000160101602068416921F080014161206C28
:100E600008B9A06C20B12068016821F00801016078
:100E70002068016821F0010101600CE000F020FB16
:100E8000801B052807D920206065032084F83500E1
:100E900084F83450D7E720680068C007EED194F892
:100EA0005C103F208840B860012084F8350084F849
:100EB00034500020C7E790F83510022903D0802174
:100EC000416501207047052180F8351000680168F0
:100ED00021F0010101600020704700002DE9F84376
:100EE00004464FF00009CDF8009063484FF41651C6
:100EF000A56D0068B0FBF1F72E6894F85C1008202F
:100F000000FA01F131420FD021680A6852070BD56F
:100F10000A6822F004020A6094F85C108840A86015
:100F2000606D40F00100606594F85C104FF00108BE
:100F300008FA01F0304208D021684969090604D551
:100F4000A860606D40F00200606594F85C100420B9
:100F50008840304208D021680968890704D5A86014
:100F6000606D40F00400606594F85C1010208840CB
:100F7000304218D021680968090714D5A860206894
:100F80000168490304D50068000308D5A16C07E097
:100F90000168C90503D4016821F008010160216CD2
:100FA00009B12046884794F85C10202088403042E0
:100FB00031D021680968C9062DD5A86094F835009C
:100FC00005282068016806D0490347D5006800035A
:100FD0001DD4616C1CE021F016010160206841699C
:100FE00021F080014161206C08B9A06C20B120681B
:100FF000016821F00801016094F85C103F208840EE
:10100000A86084F8358084F83490216D1FE0E16B8E
:1010100009B120468847606D00282BD0606DC0075D
:1010200014D0052084F835002068016821F0010102
:1010300001600098401C0090B84203D82068006806
:10104000C007F6D184F8358084F83490E16C00292B
:1010500010D001B02046BDE8F04308470168C9053B
:10106000D5D4016821F01001016084F8358084F83E
:101070003490CCE7BDE8F8838C0100202DE9F041E5
:10108000044600F01DFA06465CB1022084F83500E3
:10109000002584F834502068016821F001010160C6
:1010A0000DE00120BDE8F08100F00AFA801B052860
:1010B00005D920206065032084F83500F2E7206818
:1010C0000068C007F0D12268116820480140D4E9C7
:1010D00001031843D4E903363343184363691843C3
:1010E000A3691843E3691843236A18430843616AF4
:1010F000042903D1D4E90B13194308431060206875
:101100004069666A20F0070130460E430127042833
:101110000CD1A06A0643E06A40B12046FFF7B0FA5E
:1011200020B14020606584F83570BAE720684661D8
:101130002046FFF791FA94F85C203F2191408160AE
:10114000656584F835700020ACE700003F8010F042
:101150002DE9F0410446866D90F834000025012801
:101160000DD0012084F8340094F835700020012F50
:1011700007D084F8340002252846BDE8F08102201B
:10118000FBE7022784F8357060652046FFF7A2FA76
:1011900094F85C103F208840B0602068016841F0FE
:1011A00016010160206C20B12068016841F008013F
:1011B00001602068016841F001010160DCE7000086
:1011C00070B5044600F07CF90546601C02D0044866
:1011D0000078044400F074F9401BA042FAD370BDBB
:1011E000800100200348016841F0004101600020B7
:1011F00070470000103C02402DE9F0471B4E0546A9
:101200001446307E1F468946012808D001203076DA
:101210004CF250384046FFF795FB18B114E002201D
:10122000BDE8F0879DB1012D16D0022D19D02246C0
:101230003B464846FFF718FB4046FFF783FB0C4947
:101240000A6822F001020A6000213176E8E7E1B283
:101250004846FFF7F9FAEFE7A1B24846FFF71AFB55
:10126000EAE721464846FFF727FBE5E7C8070020E5
:10127000103C0240074900200A68002A09DA054AA2
:10128000054B0C3A1360054B13600968002900DA1E
:1012900001207047103C024023016745AB89EFCD28
:1012A00070470000044910B50A68024202D0086085
:1012B000FFF7F6FF10BD0000143C01402DE9F84F88
:1012C000DFF8BCA10022012503264FF00F090AF127
:1012D000040BAAF1040E00BF0B6805FA02F42340C8
:1012E000A34270D10F7907F00307012F01D0022F1D
:1012F00016D187684FEA420806FA08FC27EA0C076D
:10130000D1F80CC00CFA08FC4CEA070CC0F808C075
:101310004768A7430C79C4F3001494403C434460ED
:101320000C79E443A4070AD0C4684FEA420C06FAD9
:101330000CF7BC438F6807FA0CF72743C7600C799A
:1013400004F00304022C12D1D40800EB840CDCF866
:1013500020405707FF0E09FA07F824EA0804D1F8DD
:10136000108008FA07F848EA0408CCF820800468DE
:101370004FEA420C06FA0CF7BC430F7907F003075B
:1013800007FA0CF7274307604C6814F4403F70D00D
:101390003C4C276847F480472760246822F0030705
:1013A00004F480440094384C07EB040CDCF8084843
:1013B00097074FEA177809FA08F7BC43334FB8424A
:1013C00002D1002724E054E0314FB84201D1012777
:1013D0001EE0304FB84201D1022719E02E4FB8422B
:1013E00001D1032714E02D4FB84201D104270FE0AB
:1013F0002B4FB84201D105270AE02A4FB84201D14C
:10140000062705E0284FB84201D1072700E008274A
:1014100007FA08F72743CCF80878DAF8004057466F
:10142000D1F804C09C435FEACC2C00D51C433C603F
:10143000DBF800405F46D1F804C09C435FEA8C2C87
:1014400000D51C433C60DEF800407746D1F804C06C
:101450009C435FEA8C3C00D51C433C60084F083F2E
:101460003C68D1F804C09C435FEACC3C00D51C43E7
:101470003C60521C102AFFF42FAFBDE8F88F00002B
:10148000083C014044380240003001400000024066
:101490000004024000080240000C0240001002401C
:1014A0000014024000180240001C0240006908407D
:1014B00000D0012070470AB1816170470904FBE741
:1014C0000148806870470000800100200248816860
:1014D0000278114481607047800100200B4810B5EC
:1014E000016841F400710160016841F480610160AC
:1014F000016841F480710160032000F06FF80F2053
:1015000000F006F800F024F8002010BD003C024076
:1015100070B50D4D04464FF47A712878B1FBF0F0A8
:101520000A490968B1FBF0F000F00AFB48B9102C39
:1015300007D200222146501E00F030F800206C60D7
:1015400070BD012070BD0000800100208C010020D2
:101550000A4808B5016841F480410160006800F460
:10156000804000900548001F016841F080510160F3
:10157000006800F08050009008BD00004438024030
:10158000002809DB00F01F02012191404009800082
:1015900000F1E020C0F8001170470000F0B40E4BDD
:1015A0001B680C46C3F30223C3F10705042D00D9C1
:1015B0000425191D072901D2002300E0DB1E0126A6
:1015C00006FA05F1491E214099409E40761E1640BC
:1015D0003143F0BC02F082BD0CED00E0064900F0A2
:1015E000070208684FF6FF03184040EA0220034A4A
:1015F00010430860704700000CED00E00000FA05A1
:101600002DE9F0470E46050065D0DFF81481D8F8C3
:101610000000F7B200F00700B04207D288F800706F
:10162000D8F8000000F00700B04254D128683D4CC3
:10163000810712D5400703D5206840F4E0502060B0
:101640002878000703D5206840F4604020602068B7
:10165000A96820F0F000084320602878C0072DD04A
:10166000304968680839012812D0022813D00328AD
:1016700011D00968890700292DDA216821F00301BA
:1016800001432160FFF71CFF814641F2883A0EE0DA
:1016900009688903EFE709688901ECE7FFF710FFA4
:1016A000A0EB0901514502D90320BDE8F08720686D
:1016B000696800F00C00B0EB810FEFD1D8F8001092
:1016C000404601F00701B14207D90770006800F0F9
:1016D0000700B04201D00120E7E72878400705D590
:1016E0002068E96820F4E05008432060287800076B
:1016F00006D52068296920F4604040EAC1002060D6
:1017000000F038F82168084AC1F30311515CC84061
:101710000649086006480068FFF7FAFE0020C4E7A3
:10172000003C024008380240D66800088C010020C6
:10173000840100200448054900680968044AC1F38F
:101740008221515CC84070478C010020083802405B
:10175000E66800080448054900680968044AC1F3BE
:101760004231515CC84070478C010020083802406B
:10177000E6680008154810B5006810F00C0214481F
:1017800013D04110042A0FD0082A0ED10F4C241F69
:101790002268236802F03F025B0207D52068C0F38D
:1017A0008810A0FB010106E0084610BD2168C1F3C6
:1017B0008811A1FB00010023FEF776FD2168C1F32B
:1017C0000141491C4900B0FBF1F010BD083802404E
:1017D0000024F4002DE9F84F04006ED02078DFF8E3
:1017E0004C93C007A9F104054AD009F1040001682F
:1017F000C1F38101012908D00068C0F381000228EB
:101800000AD1D9F80000400206D52868800337D5F0
:1018100060680028E1D033E06068B0F5803F10D008
:10182000B0F5A02F286810D020F4803028602868F8
:1018300020F4802028606068A8B1FFF741FE0646CA
:101840000DE0286840F48030F4E740F48020286000
:10185000F7E700BFFFF734FE801B642873D82868C1
:101860008003F7D50CE0FFF72BFE064605E000BF2E
:10187000FFF726FE801B6428F0D828688003F7D481
:101880002078DFF8AC8280074FF0000A3ED5A748E9
:10189000001D016811F00C0F08D00068C0F3810032
:1018A00002280BD1D9F80000400207D4286880072D
:1018B00016D5E068012800D112E033E1E068B8B144
:1018C0000120C8F80000FFF7FBFD064605E000BF59
:1018D000FFF7F6FD801B0228C0D828688007F7D5DF
:1018E0002868216920F0F80040EAC10028600DE076
:1018F000C8F800A0FFF7E4FD064604E0FFF7E0FDAE
:10190000801B02281FD828688007F7D4207800079A
:1019100022D5864F87486169703771B10121016016
:10192000FFF7CEFD064604E0FFF7CAFD801B022844
:1019300009D838688007F7D50EE0C0F800A0FFF797
:10194000BFFD064605E082E0FFF7BAFD801B0228D6
:101950007DD838688007F7D42078400768D5DFF84D
:10196000CCB100270BF13C0BDBF80000C0000BD41E
:10197000DBF8001041F08051CBF80010DBF80000DC
:10198000012700F0805000906B4E3068C00510D4E5
:10199000306840F480703060FFF792FD009005E001
:1019A000FFF78EFD0099401A022850D83068C00514
:1019B000F6D55E4EA0686C3601280FD00528306839
:1019C00010D020F001003060306820F0040030605A
:1019D000A068B8B1FFF774FD00900FE0306840F0E8
:1019E0000100F4E740F004003060F7E7FFF768FD1E
:1019F0000099411A41F28830814266D830688007E8
:101A0000F4D50EE0FFF75CFD009007E0FFF758FD0E
:101A10000099411A41F28830814256D830688007D7
:101A2000F4D42FB1DBF8001021F08051CBF8001076
:101A3000A069C8B33D49091D0968C1F381010229A4
:101A40004AD00228504607D0C8F8600000E03CE0C9
:101A5000FFF736FD04463BE04746C8F86000FFF755
:101A60002FFD064605E000BFFFF72AFD801B022878
:101A70002BD828688001F7D4D4E907010843A16A6C
:101A80002E4A490802EB0141626A41EA8211084389
:101A900094F82C1040EA0161C9F800100120386662
:101AA000FFF70EFD044606E03EE000BFFFF708FD2D
:101AB000001B022809D828688001F7D534E000BF50
:101AC000FFF7FEFC001B022802D90320BDE8F88FB7
:101AD00028688001F4D427E00128F7D0D9F8000065
:101AE000E26900F4800191421CD1226A00F03F01BA
:101AF000914217D147F6C071626A0140B1EB821F73
:101B000010D1A26A4FF0FF3300F4403103EB5202D0
:101B1000B1EB024F06D194F82C1000F07060B0EBDE
:101B2000016F01D00120D1E70020CFE70438024047
:101B300000004742800E4742007000400000FFFF57
:101B400010B5401EB0F1807F01D3012010BD4FF0D1
:101B5000E02460610F21601702F0C0FA0020A0614C
:101B600007202061002010BD7047704770B590F8C5
:101B70003C20012A32D0012480F83C40022280F827
:101B80003D2003685A689D6822F070060A68324357
:101B90005A60134B02689A4214D0B2F1804F11D0B0
:101BA000104B9A420ED0104B9A420BD00F4B9A42D8
:101BB00008D00F4B9A4205D00E4B9A4202D00E4BE2
:101BC0009A4204D1496825F080031943916080F856
:101BD0003D40002180F83C10084670BD022070BDD9
:101BE000000001400004004000080040000C0040DC
:101BF00000040140004001400018004010B50400FE
:101C000003D094F83D0010B107E0012010BD002082
:101C100084F83C00204600F01FF8022084F83D00C4
:101C2000211D206801F06AFD012084F8460084F837
:101C30003E0084F83F0084F8400084F8410084F8B6
:101C4000420084F8430084F8440084F8450084F896
:101C50003D00002010BD000008B502683748384933
:101C6000824207D1086840F001000860086800F06F
:101C7000010056E03248001FB2F1804F11D0314BC5
:101C80009A421DD1016841F0040101600068002200
:101C900000F00400009001211E20FFF77FFC1E20B1
:101CA00031E0016841F0010101600068002200F0AC
:101CB0000100009011461C20FFF770FC1C2022E060
:101CC000214B9A420ED1016841F008010160006881
:101CD000002200F00800009011463220FFF75EFC61
:101CE000322010E0194B9A4211D1016841F01001E5
:101CF00001600068002200F01000009002213620F0
:101D0000FFF74CFC3620BDE80840FFF739BC10480F
:101D1000824208D1086840F480300860086800F406
:101D20008030009008BD0B488242FBD1086840F427
:101D300080200860086800F48020F2E7000001407D
:101D40004438024000080040000C004000100040F1
:101D5000004001400048014090F83D10012901D0A9
:101D600001207047022180F83D100168CA6842F0E6
:101D70000102CA6000681149884214D0B0F1804F56
:101D800011D00F4988420ED00E4988420BD00E491F
:101D9000884208D00D49884205D00D49884202D0BA
:101DA0000C49884204D1816801F00701062903D05B
:101DB000016841F00101016000207047000001400E
:101DC0000004004000080040000C004000040140F6
:101DD00000400140001800400168CA6822F001027A
:101DE000CA6001680A6A41F211131A4207D10A6AED
:101DF0009B101A4203D10A6822F001020A600121F5
:101E000080F83D100020704770B5044690F83C0003
:101E10000025012817D0012684F83C60022084F8B0
:101E20003D002068826822F0770222F47F428260BF
:101E30000868502838D00DDC20284FD005DC90B33E
:101E4000102811D14AE0022070BD302846D0402829
:101E50000AD13BE060282FD070280DD0B0F5805F0C
:101E600003D0B0F5005F12D0012584F83D6000205A
:101E700084F83C00284670BDCB68D1E90121206878
:101E800001F0ADFC2068816841F0770109E0CB6882
:101E9000D1E90121206801F0A2FC2068816841F4A9
:101EA00080418160E1E719E0CA684968206801F073
:101EB0006BFD5021206806E0CA684968206801F07F
:101EC00074FD6021206801F094FCCEE7CA6849687F
:101ED000206801F059FD40212068F4E7226801469E
:101EE0001046F0E77047000030B50446002551B1B8
:101EF00004290DD0082910D094F8410094F8452009
:101F0000012811D10EE094F83E0094F84220F7E742
:101F100094F83F0094F84320F2E794F8400094F8D6
:101F20004420EDE7012A01D0012030BD022059B143
:101F3000042912D0082919D084F8410084F84500FA
:101F40000C2944D0012540E084F83E0084F842008A
:101F50002068C26842F0020210E084F83F0084F872
:101F600043002068C26842F0040207E084F84000A1
:101F700084F844002068C26842F00802C26001226E
:101F8000206801F01FFC14492068884214D0B0F189
:101F9000804F11D0114988420ED0114988420BD090
:101FA0001049884208D01049884205D00F4988421C
:101FB00002D00F49884204D1816801F00701062947
:101FC00003D0016841F001010160284630BD20685E
:101FD000C26842F01002D1E7000001400004004056
:101FE00000080040000C0040000401400040014097
:101FF0000018004070B50446006801694FF0000504
:10200000C943890715D4C168C943890711D4E91E9A
:10201000016101202077206880698007204602D076
:10202000FFF760FF04E000F0EBF8204600F090F9C5
:10203000257720680169C943490717D4C168C94396
:10204000490713D46FF00401016102202077206852
:10205000806910F4407F204602D0FFF743FF04E080
:1020600000F0CEF8204600F073F92577206801696A
:10207000C943090716D4C168C943090712D46FF0D0
:1020800008010161042020772068C069800720468C
:1020900002D0FFF727FF04E000F0B2F8204600F07E
:1020A00057F9257720680169C943C90617D4C16863
:1020B000C943C90613D46FF01001016108202077CD
:1020C0002068C06910F4407F204602D0FFF70AFF65
:1020D00004E000F095F8204600F03AF925772068F2
:1020E0000169C943C90708D1C168C943C90704D1F7
:1020F000891E0161204600F005FA20680169C94384
:10210000090609D4C168C943090605D46FF08001E6
:1021100001612046FFF728FD20680169C94349068F
:1021200009D4C168C943490605D46FF04001016173
:10213000204600F06DFA20680169C94389060BD476
:10214000C168C943890607D46FF0200101612046A8
:10215000BDE87040FFF709BD70BD0000F0B587B065
:10216000044614216846FEF716F920680024204929
:102170000225204EB0F1804F16D01F4A904211D157
:10218000086840F0020008600868694600F0020034
:10219000059003200090CDE901543046CDE9034578
:1021A000FFF78CF807B0F0BD086840F00100086048
:1021B000086800F001000590086840F0020008601F
:1021C000086801270097CDE9015400F00200CDE92D
:1021D0000470694603940948FFF770F808200090DE
:1021E000CDE90154CDE9034769463046D8E7000000
:1021F0003038024000040240000400400000024069
:10220000704770B5044690F83C0000260D46012842
:102210000FD0012084F83C006AB1042A1DD0082A9E
:102220002FD00C2A3FD00126002084F83C003046F5
:1022300070BD022070BD206801F0E4FA2068816959
:1022400041F0080181612068816921F00401816108
:10225000206881692A69114311E0206801F002FBBE
:102260002068816941F4006181612068816921F4FD
:1022700080618161206881692A6941EA0221816166
:10228000D2E7206801F024FB2068C16941F0080111
:10229000C1612068C16921F00401C1612068C16980
:1022A0002A69114311E0206801F046FB2068C169EA
:1022B00041F40061C1612068C16921F48061C1619C
:1022C0002068C1692A6941EA0221C161ACE710B501
:1022D000040003D094F83D0010B107E0012010BDC8
:1022E000002084F83C00204600F01EF8022084F80C
:1022F0003D00211D206801F001FA012084F846000C
:1023000084F83E0084F83F0084F8400084F84100DF
:1023100084F8420084F8430084F8440084F84500BF
:1023200084F83D00002010BD08B5006806498842C9
:1023300008D10648016841F002010160006800F020
:102340000200009008BD0000000400404038024038
:102350007047000030B500250446022249B1042927
:1023600012D008294CD094F84100012853D0012004
:1023700030BD94F83E000128F9D184F83E20206851
:10238000C26842F0020209E094F83F000128EED151
:1023900084F83F202068C26842F00402C260012233
:1023A000206801F00FFA21492068214A884201D0B3
:1023B000904203D1436C43F4004343642068884255
:1023C00013D0B0F1804F10D01A4988420DD01A496D
:1023D00088420AD01949884207D0904205D018494E
:1023E000884202D01749884204D1816801F0070170
:1023F000062903D0016841F001010160284630BD83
:1024000094F840000128B2D184F840202068C268C6
:1024100042F00802C2E784F841200C2901D00125CE
:10242000ECE72068C26842F01002B7E70000014004
:10243000000401400004004000080040000C00407F
:10244000004001400018004070B50D0004464FF0F8
:10245000000607D0042D0AD0082D0DD00C2D10D069
:1024600001263FE02068C16821F002010DE02068EC
:10247000C16821F0040108E02068C16821F008016A
:1024800003E02068C16821F01001C16000222946E4
:10249000206801F097F9194B41F2111120688A1058
:1024A000984202D0164B984209D1036A0B4206D1DA
:1024B000036A134203D1436C23F40043436420684E
:1024C000036A0B4206D1016A114203D1016821F06F
:1024D0000101016001203DB1042D08D0082D09D073
:1024E00084F84100304670BD84F83E00FAE784F875
:1024F0003F00F7E784F84000F4E7000000000140E7
:102500000004014070B504460068B0F1804F31D13D
:102510003549F7EE000A012091ED150A30EE200A48
:1025200081ED150AD1ED160AB4EEE00AF1EE10FACB
:1025300000DB0870D1ED170AB4EEE00AF1EE10FAF4
:1025400000DB4870D1ED180AB4EEE00AF1EE10FAA3
:1025500000DB8870D1ED190AB4EEE00AF1EE10FA52
:1025600000DBC870D1ED1A0AB4EEE00AF1EE10FA01
:1025700000DB08711D49206888421DD11A4D0020DA
:10258000803595ED100AB8EEC00A85ED0E0A286474
:10259000686410EE100A04F0A7F89FED151B53ECC9
:1025A000112B03F0ABFD9FED141B53EC112B03F02B
:1025B0007BFB03F08BFAE8631149206888420AD15B
:1025C000032210491048FEF783FB03F05DF802F088
:1025D000FDFF02F051FF0D492068884203D1BDE89C
:1025E000704003F0FDB870BD00000020000C0040FA
:1025F000986E1283C02A5940000000000000694014
:10260000000800401401002090010020001000404C
:10261000704738B5044690F83E00202822D181B199
:102620007AB194F83C0001281CD0012084F83C00C9
:102630002063204601F08EFB002803D1216B012985
:1026400001D0012038BD21680A68496800912168DD
:102650000C3151E8002F42F0100241E80023002B1A
:10266000F5D138BD022038BD2DE9F05FAE4F386995
:10267000401C3861D7E90731AC4CBA690020255CB1
:10268000042D02D0112D06D011E025186D785A2D99
:102690000DD101210BE025186D78062D01D0052DF7
:1026A00002D1022101230022072D00D10321401C69
:1026B0002428E4DDBA61DFF87092C7E90731A9F197
:1026C00080094FF0000801297CD198492422A1F506
:1026D0001870FFF79EFFDFF858B2002509F18C0A49
:1026E000605D112806D020280BD006281BD00428B6
:1026F00023D0ABE060194078022801D1C7F82080D0
:10270000A4E061194878062804D0042805D00228DE
:1027100006D09BE00879786298E00879F86295E045
:102720000879386392E060198178202904D1C17852
:10273000002901D18079B86288E060194078A52825
:102740007DD1786A10B18AF8000007E0C7F834B08C
:10275000FEF790FD786B01788AF80010B86A10B126
:102760008AF8010008E07248401C7863FEF782FD99
:10277000786B01788AF80110386B10B18AF8020082
:1027800008E06B48801C7863FEF774FD786B017875
:102790008AF80210F86A10B18AF8030008E0644869
:1027A000C01C7863FEF766FD786B01788AF8031029
:1027B000FEF760FD02210420C7F834B0FEF71CF8D4
:1027C000002600E046E000231AF806201846796B40
:1027D000FEF712FD786B761C401C7863042EF0DD4A
:1027E000FEF700FDC7F834B0FEF744FD4F48002166
:1027F00024307A6B12F8013B4354491C7A63042954
:10280000F7DD01787962417801EB4102C2EBC11139
:102810004FF6FF7202EAC103A9F80A30837803EB8E
:102820004306C6EBC31302EAC303A9F80C30C07811
:1028300000EB4003C3EBC01002EAC00000E005E07B
:10284000A9F80E00C7F834B0FEF7CCFC6D1C242D9F
:102850007FF746AF386A022816D134492422A1F501
:102860001870FFF7D6FE00204146225C112A04D1E1
:1028700022185278042A00D13962401C2428F4DD41
:1028800024212A48FDF787FD386A032844D12749C7
:102890002422A1F51870FFF7BCFE99F8095099F8A9
:1028A000076099F808C099F8063000214846625C34
:1028B000112A28D162185278022A10D0082A11D081
:1028C0000C2A11D0092A11D00D2A12D00A2A13D0AD
:1028D0000E2A13D00B2A13D00F2A13D013E0C7F8F7
:1028E000208010E001230EE000230CE04FF0010CEB
:1028F00009E04FF0000C06E0012604E0002602E0AB
:10290000012500E00025491C2429D0DD4572C6714F
:1029100080F808C089F80630BDE8F05F034924223A
:10292000A1F51870FFF775BE800000207806002022
:102930000000010870470000F8B501680446086807
:10294000CA684B6910F00F0F4FF0000559D003F023
:10295000010602F49077374365D0C10705D0D10551
:1029600003D5216C41F001012164410705D5D90748
:1029700003D0216C41F002012164810705D5D907FC
:1029800003D0216C41F004012164010707D502F056
:102990002001314303D0216C41F008012164216CF6
:1029A00000293AD0800604D5900602D5204601F0D1
:1029B000EBF820684069216CC0F38010090700D44F
:1029C00060B3204601F0ABF820684069400621D58D
:1029D0002068143050E8001F21F0400140E8001248
:1029E000002AF5D1A06BA8B16C490165A06BFEF778
:1029F00062FA002811D0A06B016D01B0BDE8F04073
:102A0000084783060FD593060DD52046BDE8F8404C
:102A100001F0BAB82046FFF78DFFF8BD2046FFF75A
:102A200089FF2564F8BD266B2023012E79D1C606C7
:102A300077D5D60675D5086848680090486940067D
:102A400040D5A16B086840680004000CEAD0A28D54
:102A50008242E7D9E085C869B0F5807F2DD0206833
:102A60000C3050E8001F21F4807140E80012002A69
:102A7000F5D12068143050E8001F21F0010140E832
:102A80000012002AF5D12068143050E8001F21F010
:102A9000400140E80012002AF5D184F83E30256359
:102AA00020680C3050E8001F21F0100140E80012AF
:102AB000002AF5D1A06BFEF7B5F9A08DE18D401A83
:102AC00081B229E0A08DE18D401A81B2E08D00280D
:102AD000A8D00029A6D020680C3050E8002F22F49E
:102AE000907240E80026002EF5D12068143050E89E
:102AF000002F22F0010240E80026002EF5D184F8D4
:102B00003E30256320680C3050E8002F22F0100280
:102B100040E80023002BF5D12046FFF7A5FDF8BDC6
:102B2000FFE705062BD5150629D594F83D00212889
:102B3000F5D1A068B0F5805F01D12069B0B1206AFD
:102B4000411C2162216800784860E08C401E00042E
:102B5000000CE084E3D12068C16821F08001C160ED
:102B60002068C16841F04001C160D8E7206A008850
:102B7000C0F308004860206A801C2062E5E7400638
:102B8000CDD55006CBD5CA68204622F04002CA6097
:102B900084F83D3000F006F9C1E70000DD39000897
:102BA00070B5040004D094F83D00002510B106E093
:102BB000012070BD84F83C50204600F023F824200A
:102BC00084F83D002068C16821F40051C1602046AE
:102BD00001F03AF82068016921F490410161206810
:102BE000416921F02A0141612068C16841F4005126
:102BF000C1602564202084F83D0084F83E00002058
:102C000070BD00002DE9F04186B0064614216846EB
:102C1000FDF7C1FB38493068884269D13748002444
:102C2000016841F480110160006800F48010059093
:102C300032481038016841F004010160016801F078
:102C400004010591016841F0080101600068022556
:102C500000F0080005904FF48050CDE9000502AA6D
:102C600003274FF0080882E8900169462448FEF7E0
:102C700025FB0420CDE9000502AA694682E89001FF
:102C80002048FEF71BFB214D1F484FF48068C70505
:102C90002860C5E90174C5E903486C61AC61EC6169
:102CA0002C6228466C62FEF7E9F908B1FDF7A2FD37
:102CB000B563AE631448164DA830E5E8020740201E
:102CC000A5E81101124845F81449AC61EC612C6289
:102CD0006C62FEF7D3F908B1FDF78CFD7563002235
:102CE00002213520AE63FEF759FC3520FEF748FC83
:102CF00006B0BDE8F08100000050004040380240BE
:102D000000080240000C024010600240080700204A
:102D1000680700207047704770B5044690F83D0082
:102D2000202836D191B38AB394F83C00012830D0E2
:102D3000012084F83C002162A284E28400252564FD
:102D4000212084F83D00636B1348D863636B1348FC
:102D50001864636B1248D864606B13460565266877
:102D6000606B321DFEF7F4F921686FF040000860D7
:102D700084F83C502068143050E8001F41F0800176
:102D800040E80012002AF5D1002070BDFFE70120C5
:102D9000FBE70220F9E70000D33A0008153B0008E2
:102DA000ED39000804484169491C41610349242266
:102DB000A1F51870FFF72DBC8000002078060020D8
:102DC0007047FEE77FB500212148009101910291F3
:102DD0001E4A0391026001244FF480320461C0E96D
:102DE0000121017680F820101A4AC0E90A21032542
:102DF000C561C16080F830104461FDF774FE08B110
:102E000072B6FEE70420CDE900040720029069466F
:102E10000F48FDF7BFFD08B172B6FEE7062000902F
:102E20000220019069460A48FDF7B4FD08B172B668
:102E3000FEE70520CDE9000569460548FDF7AAFD36
:102E4000002801D072B6FEE77FBD000000200140DF
:102E5000900100200100000F154808B5016841F4F9
:102E600080010160016801F480010091016841F472
:102E7000001101600068002200F40010009011466B
:102E80000B20FEF78BFB0B20FEF77AFB002211468E
:102E90002F20FEF783FB2F20FEF772FB002201217B
:102EA0003820FEF77BFBBDE808403820FEF768BB02
:102EB000303802402DE9F04F87B014216846FDF705
:102EC0006AFA51480024016841F004010160016878
:102ED00001F004010591016841F080010160016881
:102EE00001F080010591016841F001010160016874
:102EF00001F001010591016841F0020101600168E2
:102F000001F002010591016841F0080101600068CB
:102F1000DFF8F89000F00800059000221F214846D5
:102F2000FEF7C9FADFF8E8A0002206215046FEF7B6
:102F3000C2FADFF8E0B000224FF410415846FEF725
:102F4000BAFA4FF400570225009769464846CDE982
:102F50000145FEF7B3F94FF400480126CDF8008093
:102F6000CDE9014669464846FEF7A8F91F20CDE99C
:102F7000000669464846CDE90245FEF79FF906205E
:102F8000CDE9000669465046CDE90245FEF796F9BF
:102F900008208DE8310069465046FEF78FF904207D
:102FA0008DE8310069461C48FEF788F9E802009078
:102FB000CDE90164694658460394FEF77FF900970E
:102FC00069465846CDE90145FEF778F9CDE9008616
:102FD00069465846CDE90245FEF770F98020009019
:102FE0004FF48810CDE9010569465846FEF766F9A9
:102FF000002211461720FEF7D1FA1720FEF7C0FA7B
:1030000007B0BDE8F08F00003038024000080240F1
:1030100000000240000C02400004024010B586B0DF
:1030200000241848009401940294039404941449D1
:10303000059401605321C0E901144FF6FF71C0E906
:1030400003148021C0E90541FEF7D8FD08B172B62E
:10305000FEE74FF48050009069460A48FEF7D4FE20
:1030600008B172B6FEE7049404A906480594FEF779
:103070007DFD002801D072B6FEE706B010BD00004D
:1030800000000140D801002010B58EB00024079444
:10309000089409940A940B941C2168460C94FDF73B
:1030A0007AF922484FF0804101605321C0E90114B0
:1030B00040F28F11C0E903148461FEF79FFD08B14F
:1030C00072B6FEE74FF48050079007A91748FEF745
:1030D0009BFE08B172B6FEE71448FFF7F8F808B196
:1030E00072B6FEE70B940BA910480C94FEF73EFD58
:1030F00008B172B6FEE76020CDE900040294002218
:1031000069460A480494FFF77CF808B172B6FEE7F6
:10311000042269460548FFF774F808B172B6FEE765
:103120000248FFF71BF80EB010BD0000200200207F
:1031300010B58AB0002407941C2168460894FDF756
:103140002AF91A48184901605321C0E9011442F2D2
:103150000F71C0E903148461FFF7B9F808B172B6C2
:10316000FEE7079407A911480894FEF7FFFC08B191
:1031700072B6FEE76020CDE9000402940822694699
:103180000A480494FFF73DF808B172B6FEE70C2236
:1031900069460648FFF735F808B172B6FEE70348FE
:1031A000FEF7DCFF0AB010BD0004004068020020FA
:1031B00010B586B00024174800940194029403943B
:1031C000049413490594016040F24731C0E90114A9
:1031D00040F2E731C0E903148461FEF70FFD08B146
:1031E00072B6FEE74FF48050009069460948FEF73A
:1031F0000BFE08B172B6FEE7049404A905480594D5
:10320000FEF7B4FC002801D072B6FEE706B010BD90
:1032100000080040B002002010B586B00024174816
:10322000009401940294039404941349059401605A
:1032300042F2CF01C0E9011442F20F71C0E9031458
:103240008461FEF7DBFC08B172B6FEE74FF48050F4
:10325000009069460948FEF7D7FD08B172B6FEE74F
:10326000049404A905480594FEF780FC002801D0C9
:1032700072B6FEE706B010BD000C0040F802002058
:103280001FB5002111480091019102910E4A03914E
:10329000026042F2CF02C0E9012142F20F72C0E99E
:1032A00003218161FEF7AAFC08B172B6FEE74FF474
:1032B0008050009069460548FEF7A6FD002801D021
:1032C00072B6FEE71FBD00000040014088030020E9
:1032D000FEE7FEE770B5374D2DED088B30EEC08A66
:1032E00005F1800485ED0D8A95ED0E0A20EE08BAF1
:1032F00084ED18BAD4ED16BA38EE2B0A10EE100A87
:1033000003F0F2F941EC190BE86B03F0EDF99FEDD6
:103310002A1B53EC112B02F0F1FE9FED29AB53EC6D
:103320001A2B02F0EBFE53EC192B02F0E7FE02F031
:10333000CDFB38EE6B0A08EE900AC4ED198A10EE48
:10334000100A03F0D1F941EC190B286C03F0CCF909
:1033500053EC1A2B02F0A8FC53EC192B02F0CEFE12
:1033600002F0B4FB7BEE280A00EE100A164984ED49
:103370001A0A30EE800A10EE100A84ED170A84ED66
:10338000168A884203DB9FED110A84ED170AB5EE19
:10339000C00AF1EE10FA03D29FED0D0A84ED170A70
:1033A00010EE100A03F0A0F9BDEC088B41EC100BF5
:1033B00070BD000000000020000000000000E03FA1
:1033C0009A9999999999B93F00401C460070144602
:1033D00000000000704700002DE9F05F8A4E8C4F1E
:1033E000DFF828A24FF40048A6F18004FD0406E0AF
:1033F000012204215046FEF75EF8206968634146C9
:103400003846FEF753F828B9B069012802D1F069AF
:103410000028EDD04146B9463846FEF747F8002768
:1034200068B16F6300217B48FFF70EF89FED7A0AC1
:10343000002284ED150A02214846FEF73CF8F069A7
:1034400001287DD1B06900287AD1C3464146C846DB
:103450004846FEF72BF8002872D000216D48FEF791
:1034600079FF09E06B48FEF777FC2069686300226A
:1034700004215046FEF71FF894ED150AD4ED160A04
:10348000B4EEE00AF1EE10FAECD3207801281FD157
:103490006F636048FEF7A0FC94ED160A012284EDEC
:1034A000150A11464046FEF706F86089A0F5FA7045
:1034B000FDF786FE00220121404607E05548FEF751
:1034C0004BFC20696863002204215046FDF7F3FF9E
:1034D00094ED150AD4ED170AB4EEE00AF1EE10FAF5
:1034E000ECD36078012807D14A48FEF775FC6F637A
:1034F00094ED170A84ED150A01221021C1464046B9
:10350000FDF7D9FF012204214846FDF7D4FF4FF40F
:10351000FA60FDF755FE09E03E48FEF71DFC01226A
:1035200004215046FDF7C7FF2069686394ED150A32
:10353000D4ED180AB4EEE00AF1EE10FAECD300E094
:103540005FE0A07801285CD1B8466F633148FEF790
:1035500043FC01220221CA464846FDF7ACFFD9468A
:103560005946DFF8B8B001225846FDF7A4FF60695C
:10357000A8634FF4FA60FDF723FE0022494658463F
:10358000FDF799FFAF63A089FDF71AFE01224946B6
:103590005846FDF790FF002704E0AF630A20FDF7CF
:1035A0000FFE7F1C60698742F7DDE089A0F5D850E7
:1035B0005838FDF705FE6769002F05DBAF630A2069
:1035C000FDF7FEFD7F1EF9D5002249465846FDF75E
:1035D00072FF4FF47A70FDF7F3FD0022102155467B
:1035E0005046FDF768FF002204212846FDF763FFDF
:1035F0000120C6E9060884F8008084F8018084F878
:103600000280BDE8F09F0000800000200000024022
:10361000000802402002002000000000000C0240D0
:103620007047FDF753BF000030B593B030216846B6
:10363000FCF7B1FE14210CA8FCF7ADFE1D480025D7
:10364000016841F080510160006800F080501190E5
:103650001948016841F4804101600068022400F4C7
:103660008040119001200090000401908001CDE97C
:10367000064008AA0420A82182E813000B9068469F
:10368000FEF7A8F808B172B6FEE70CA90F2081E892
:1036900031004FF4A0500F904FF48050109005214E
:1036A0000CA8FDF7ADFF002801D072B6FEE713B0FD
:1036B00030BD000040380240007000400248016800
:1036C00041F470010160704788ED00E00148FEF7A9
:1036D00091BC0000200200200148FEF78BBC0000D6
:1036E000B00200200148FEF785BC0000F80200206F
:1036F0000148FEF77FBC000040030020F0B50268DF
:10370000254C264D264E274F274B4FF0804CA0428C
:1037100009D0604507D0A84205D0B04203D0B842D6
:1037200001D0984204D122F0700E4A6842EA0E029B
:10373000A0421BD0604519D0A84217D0B04215D086
:10374000B84213D0984211D0184DA8420ED0184D4F
:10375000A8420BD0174DA84208D0174DA84205D05B
:10376000164DA84202D0164DA84203D122F440754E
:10377000CA682A434D6922F080022A4302608A689F
:10378000C2620A688262A04201D0984201D10969EE
:10379000016301214161F0BD0000014000040040CF
:1037A00000080040000C00400004014000400140BF
:1037B000004401400048014000180040001C004047
:1037C0000020004010B501F01F030121046A994058
:1037D0008C430462016A9A401143016210BD10B526
:1037E000846842EA032224F47F440A43224382602D
:1037F00010BD826822F070020A4342F00701816026
:1038000070470000F0B5026A22F001020262036A0A
:1038100042688469124E24F073050C682C4323F02F
:1038200002058B682B430D4DA84201D0B04205D153
:1038300023F00807CB683B4323F00403A84201D0E0
:10384000B04205D14D6922F4407215438A692A437A
:1038500042608461496841630362F0BD0000014039
:1038600000040140F0B5026A22F010020262026A0E
:10387000436884690D6824F4E64444EA05248D68AD
:1038800022F0200242EA05120F4D104EA84201D04C
:10389000B04206D1CF6822F0800242EA071222F03D
:1038A0004002A84201D0B04207D14D6923F44063E1
:1038B00043EA85038D6943EA85034360846149686F
:1038C00081630262F0BD000000000140000401407D
:1038D000F0B5026A22F480720262026A4368C46927
:1038E00022F4007224F073050C68124E2C438D688C
:1038F00042EA05220E4DA84201D0B04206D1CF685F
:1039000022F4006242EA072222F48062A84201D037
:10391000B04207D14D6923F4405343EA05138D6942
:1039200043EA05134360C4614968C1630262F0BDA4
:10393000000001400004014030B5026A22F48052C8
:103940000262046A4268C3690D6823F4E64343EAED
:1039500005238D6824F4005444EA0534084DA84238
:1039600002D0084DA84204D14D6922F4804242EAB7
:1039700085124260C36149680164046230BD000081
:10398000000001400004014010B5036A046A24F0FD
:1039900001040462846924F0F00444EA021423F070
:1039A0000A020A438461026210BD10B5036A23F063
:1039B000100303628369046A23F4704343EA02320A
:1039C00024F0A00343EA01118261016210BD0000EE
:1039D0000148FEF7B1BF00001804002010B5806B4D
:1039E0000021C185C184FEF7A5FF10BD70B5846BB1
:1039F0002068406994F83D10C0F3C01000252129CB
:103A000004D118B1E584204600F0B0F82068406980
:103A100094F83E10C0F38010222904D118B1E58536
:103A2000204600F07CF8206C40F010002064204616
:103A3000FEF780FF70BD10B50146806B096809680C
:103A4000C9052FD40021C18501680C3151E8002F30
:103A500022F4807241E80023002BF5D10168143173
:103A600051E8002F22F0010241E80023002BF5D19C
:103A70000168143151E8002F22F0400241E8002390
:103A8000002BF5D1202180F83E10016B012909D1CE
:103A900001680C3151E8002F22F0100241E80023A8
:103AA000002BF5D1016B012902D0FFF733F910BDCE
:103AB000818DFEF7D9FD10BD10B5806B016B01291A
:103AC00002D0FFF728F910BD818D4908FEF7CCFD23
:103AD00010BD10B50146806B09680968C90516D488
:103AE0000021C1840168143151E8002F22F08002C6
:103AF00041E80023002BF5D101680C3151E8002F7B
:103B000042F0400241E80023002BF5D110BDFFF741
:103B100049F910BD10B5806BFFF752F910BD01686F
:103B20000C3151E8002F22F4907241E80023002B61
:103B3000F5D10168143151E8002F22F0010241E86B
:103B40000023002BF5D1016B012909D101680C314B
:103B500051E8002F22F0100241E80023002BF5D19C
:103B6000202180F83E1000210163704701680C316C
:103B700051E8002F22F0C00241E80023002BF5D1CC
:103B8000202180F83D10704708B590F83E1022299A
:103B900001D0022008BD82684FF480539A4201D1BF
:103BA000016921B1816A9A421BD04AB10AE00268D8
:103BB000816A5268C2F308020A80816A891C08E09F
:103BC000026972B10268526802F07F020A70816A6B
:103BD000491C8162C18D491E0904090CC18503D0AD
:103BE00019E002685268F1E70168CA6822F0200211
:103BF000CA600168CA6822F48072CA6001684A69B2
:103C000022F001024A61202180F83E10016B012957
:103C100003D0FFF77FF8002008BD00210163016891
:103C20000C3151E8002F22F0100241E80023002B54
:103C3000F5D101680A68D20602D50A684968009180
:103C4000818DFEF711FDE6E770B504460068016955
:103C5000E26821F44051114301612169A068E269E1
:103C600008436169114308432168CA6849F20C633B
:103C70009A430243CA6020684169A26921F44071F5
:103C80001143416131492068884202D0304988425D
:103C900002D1FDF75FFD01E0FDF74CFDE269002375
:103CA000192164253226B2F5004F626828D0A0FBA6
:103CB0000101930F9200FCF7F7FA0146B0FBF5F013
:103CC0006FF01802504301EB800006EB0010B0FBD0
:103CD000F5F000F0F002B1FBF5F002EB0012B1FBE1
:103CE000F5F06FF01803584301EB800006EB00106D
:103CF000B0FBF5F000F00F0021681044886070BD43
:103D0000A0FB010192185B41FCF7CEFA0146B0FB23
:103D1000F5F00201B1FBF5F06FF01803584301EB29
:103D2000800006EBC000B0FBF5F000F0F80002EBFD
:103D30004002B1FBF5F0584301EB800006EBC000F8
:103D4000B0FBF5F000F00700D6E7000000100140DE
:103D50000014014038B5816282850025134604466F
:103D60000564222084F83E00A26B1C48D063A26B3D
:103D70001B481064A26B1B48D064A06B0A46056503
:103D80002168A06B091DFDF7E3F920680168406810
:103D9000009084F83C50206948B120680C3050E80D
:103DA000001F41F4807140E80012002AF5D120681C
:103DB000143050E8001F41F0010140E80012002AD1
:103DC000F5D12068143050E8001F41F0400140E870
:103DD0000012002AF5D1002038BD0000373A000853
:103DE000B93A0008ED390008FEE700002DE9F05F60
:103DF000A94F4FF4004A51463846FDF757FB0028BB
:103E00007DD0A64E08213046FDF750FB002876D124
:103E10000021A348FEF79EFA7503A24CB34609E0C1
:103E20009F48FDF799FF20696863002204215846E6
:103E3000FDF741FBD4ED150A94ED190AF4EEC00A22
:103E4000F1EE10FAECD3E0780026DFF85C9201285E
:103E50007ED19348FDF7C0FF6E6394ED190A0122ED
:103E600084ED150A10213846FDF725FB01220821B3
:103E70003846FDF720FB012251464846FDF71BFB63
:103E80006069D4E08648FDF767FF20696863012216
:103E900004215846FDF70FFB94ED150AD4ED1A0ADC
:103EA000B4EEE00AF1EE10FAECD32079A046012836
:103EB0001BD17B48FDF790FF6E6398ED190A4FF414
:103EC000FA6088ED150A88F8036088F80460FDF749
:103ED00077F90AE07248FDF73FFFD8F810006863F1
:103EE000002204215846FDF7E6FA98ED150AD8EDB0
:103EF0001A0AB4EEE00AF1EE10FAEBD300E0C8E0E3
:103F000098F8040001283DD16548FDF765FF6E6310
:103F100098ED190A012288ED150A88F8046010212D
:103F20003846FDF7C8FA012204213846FDF7C3FAE6
:103F3000012251464846FDF7BEFAD8F81400A8639E
:103F400041F28830FDF73CF900221021384600E0AC
:103F500082E0FDF7B0FA002204213846FDF7ABFA03
:103F6000002251464846FDF7A6FAAE630AE04C48E7
:103F7000FDF7F2FED8F810006863012204215846CC
:103F8000FDF799FA98ED150AD8ED1A0AB4EEE00A91
:103F9000F1EE10FAEBD398F8040001280DD1404857
:103FA000FDF71AFF6E6398ED190A4FF4FA6088ED79
:103FB000150A88F80460FDF703F998F80500401C1D
:103FC000C0B288F8050002280BD349E03448FDF759
:103FD000C3FED8F810006863002204215846FDF79C
:103FE0006AFA98ED150AD8ED1A0AB4EEE00AF1EE75
:103FF00010FAEBD398F8040001282DD12848FDF7DA
:10400000EBFE6E6398ED190A012288ED150A102166
:104010003846FDF750FA012208213846FDF74BFAE1
:10402000012251464846FDF746FAD8F81400A86325
:1040300041F28830FDF7C4F8002210213846FDF720
:104040003AFA002208213846FDF735FA0022514697
:104050004846FDF730FAAE6360790228FFF41CAFE2
:10406000002210213846FDF726FA002204213846A6
:10407000FDF721FA002208213846FDF71CFAC82076
:10408000FDF79EF8002251464846FDF714FAAE634C
:104090006671BDE8F09F0000000802400000024089
:1040A0002002002000000020000C024003B4019810
:1040B0004100009850EAC12018BF04204A0D18BFE3
:1040C00040F0010040F2FF72B2EB515F08BF40F0D8
:1040D0000200012808BF052002B070470907090E39
:1040E000002804DB00F1E02080F80014704700F0A5
:1040F0000F0000F1E02080F8141D70470000000060
:1041000070B5D94B00242DED020B2DED108BDDE9A0
:104110001010984205DA20F000429A4201D809D1E5
:1041200041B19DED100BBDEC108B02B0BDE87040AD
:1041300001F086B8B0F5801F26DA11430BD00028B5
:1041400013DA0120FCF756F9BDEC108B02B0BDE884
:10415000704001F089B80220FCF74CF901F058F8E2
:1041600051EC100B01F0A5FC9EE06FF035049FEDC3
:10417000C00B53EC102B9DED100B51EC100B01F00C
:10418000BDFFCDE91001084604EB2051C0F3130434
:10419000B948A1F2FF31204400F4801080F07F6222
:1041A00082F04052224301EB20559FEDB50B119256
:1041B00053EC102B9DED100B51EC100B02F0AAF9F3
:1041C00041EC180BA01CC0F313009FEDAFDB9FED7B
:1041D000B0EBB14E7E4403286CD296ED000B51EC4F
:1041E000180B53EC102B01F0B7FE1DD1002D01BFB1
:1041F00096ED000BBDEC108B02B070BD284601F0AF
:1042000016FF41EC180B53EC1D2B01F077FF41EC2E
:10421000190B53EC1E2B51EC180B01F06FFF53ECF4
:10422000192B01F085FC3FE09FED9D0B51EC180B25
:1042300053EC102B01F062FF9FED9B1B53EC112BF5
:1042400002F090F841EC190B53EC182B51EC180BC1
:1042500001F054FF53EC192B01F050FF41EC190B06
:10426000002D04BF53EC192B51EC180B1AD0284623
:1042700001F0DDFE41EC1A0B53EC1D2B01F03EFF6B
:1042800053EC192B02F06EF853EC182B02F042F9A4
:1042900041EC180B53EC1E2B51EC1A0B01F02EFFC6
:1042A00053EC182B02F036F9BDEC108B02B041EC48
:1042B000100B70BD9FED7E0B51EC180B53EC102BC7
:1042C00001F036FC41EC100B51EC180B53EC102BA9
:1042D00001F0EAFC41EC190B284601F0A8FE41EC84
:1042E0001B0B53EC192B51EC190B01F007FF41ECA0
:1042F0001A0B714853EC1A2B261851EC1A0B01F0CB
:10430000FDFE41EC1F0B6D48C4F1510404F5D724A8
:10431000B0EE4F0AF0EE6F0A0321784400F0FCFE85
:1043200053EC1F2B51EC100B01F0E8FE41EC1C0B81
:104330006348B0EE4F0AF0EE6F0A0421784400F0B3
:10434000EBFE53EC1A2B51EC100B01F0D7FE34436B
:1043500053EC1C2B01F0ECFB41EC1C0B002C4CDD56
:104360009FED510B51EC180B53EC102B01F0C6FED6
:1043700053EC182B01F0C2FE41EC1A0B55B353EC71
:104380001D2B51EC1B0B01F0B9FE41EC1D0B53EC46
:104390001C2B51EC1A0B01F0CBFB53EC192B01F049
:1043A000ADFE53EC1D2B01F0C3FB53EC1A2B01F0B7
:1043B000D9FF53EC182B02F0ADF841EC180B53EC7D
:1043C0001E2B51EC1B0B01F099FE53EC182B02F045
:1043D000A1F869E753EC1C2B51EC1A0B01F0A8FB78
:1043E00053EC192B01F08AFE53EC1A2B01F0BAFFA3
:1043F00053EC182B01F0B6FF56E735B353EC1D2BE9
:1044000051EC1B0B01F07AFE41EC1A0B53EC1C2B08
:1044100051EC180B02F07EF853EC192B01F06EFEF4
:1044200053EC1A2B02F076F853EC182B02F072F8CA
:1044300041EC180B53EC1E2B51EC1B0B01F05EFEF4
:1044400053EC182B02F066F82EE753EC1C2B51ECC2
:10445000180B02F05FF853EC192B01F04FFE53ECF0
:10446000182B01F07FFF1FE70000F07F0000000025
:104470000000000000005043645F090000000000DD
:10448000000000000000F03F763C7935EF39EA3D4E
:104490000000E0FE422EE63FD827000000000000AA
:1044A000555555555555D53F000000000000E03FDB
:1044B000000000000000004086EBF9FFD22500005C
:1044C000C8250000000000002DE9F04D2DED040B83
:1044D0002DED0E8B96B0DDE92550279CDDF890A0E0
:1044E00025F0004624F00048BAF1000F14BF012166
:1044F000002101EB4502FC4953184A1093422AD38C
:10450000002814BF0123002303EB44030B44F749A5
:104510008B4220D358EA00019FEDF59B76D0DFF85F
:10452000D8B35D4503D1BAF1000F05D188E0BAF1E7
:10453000000F08BF002100D0012101EB450111F55A
:10454000001F08D8002814BF0121002101EB4401FD
:1045500011F5001F0BD99DED261B9DED240B16B008
:10456000BDEC0E8B04B0BDE8F04D00F073BE00272B
:10457000002DBCBFE149884521DAE1498845A8BF43
:1045800002271CDAC3451ADCDE4901EB2851142945
:1045900008DDC1F1340220FA02F101FA02F282428E
:1045A0000DD108E058B9C1F1140228FA02F101FA5C
:1045B00002F2424503D101F00101C1F1020756EABE
:1045C0000A0124D1002C22DA002D18BF022F01D0BD
:1045D000012F0AD00220FBF70DFF16B0BDEC0E8BA9
:1045E00004B0BDE8F04D00F013BE0220FBF702FF5F
:1045F00000F00EFE51EC100B01F05BFA41EC100BD9
:1046000016B0BDEC0E8B04B0BDE8F08D18E09FED48
:10461000BEAB9FEDBF8B002871D1B848804522D139
:1046200005F1804010F5801008BFBAF1000F07D0E7
:10463000B3450ADC002CA8BF9DED260BE0DA0DE0A7
:10464000B0EE490AF0EE690ADAE7002C06DA9DEDD1
:10465000260B51EC100B01F02CFA6FE0AE487844B9
:1046600090ED000BCCE7D8454DD1002C48DA2EB1A7
:1046700086423AD1BAF1000F42D126E0BAF1000FDA
:1046800013D00220FBF7B6FE00F0FEFD8DED020B0D
:104690009DED240B8DED000B10EE900A039961F354
:1046A0001E0003909DED020BAAE78DED02AB9DED80
:1046B000240B1AEE901A10EE900A8DED000B61F3A8
:1046C0001E0003909DED020B9AE78DED028B9DED90
:1046D000240B18EE901A10EE900A8DED000B61F38A
:1046E0001E0003909DED020B8AE709DA9DED240B75
:1046F00051EC190B53EC102B01F0D6FA1EE020E020
:104700009DED240B7CE786421BDAB4F1804F0DD07F
:10471000A4F10050B0F1FF5013D1002D11DB9DED3D
:10472000240B51EC100B01F08DF907E09DED240BEB
:1047300053EC102B51EC100B00F0C2BC41EC100BF1
:104740005EE79DED240B51EC100B00F0BDFDBAF1BE
:10475000000FCDE90E0142D19FED710B46B3A6F1DA
:10476000E040B0F17F600CD05E4538D1002D00DA1A
:10477000A7B3022F0CBF01204FF0FF3001F057FC10
:10478000DCE7002D01DD002C0DDA002D01DD002C11
:104790001FDB002D16DA002C14DB012F08BF9FED64
:1047A000620B3FF42DAFB0EE4A0AF0EE6A0A27E73B
:1047B000022F18BF002D0CD0012F0AD1002DFFF6BB
:1047C0001FAF06E0002DB8BF002C08DA012F3FF420
:1047D00017AFB0EE480AF0EE680A11E71BE00120BF
:1047E00000EBE57050EA070115D0791EB0EE498A5A
:1047F000F0EE698A084308BF9FED4D8B4E480025B7
:10480000804570DD4D494E48884514DDB0420DDBD2
:10481000002C19DB2FE00120FBF7ECFD16B0BDECFE
:104820000E8B04B0BDE8F04D00F01EBDB34502DCB8
:10483000002C09DC1FE0864202DA002C1BDA03E0C0
:104840005E452BDD002C16DD0220FBF7D3FD00F0CA
:104850001BFD8DED020B53EC1A2B51EC180B01F0E4
:104860004DFCCDE900010399019861F31E0003900E
:104870009DED020BC4E60220FBF7BCFD00F014FD29
:1048800010EE901A18EE900A8DED020B8DED008B54
:1048900061F31E0003909DED020BB1E69DED0E0B42
:1048A00053EC192B51EC100B01F034FE9FED260B4D
:1048B000CDE9080153EC102B9DED080B51EC100BCA
:1048C00001F01CFC9FED221B53EC112B01F04AFD63
:1048D0009DED081B53EC112B01F010FC9FED1E1BEE
:1048E00053EC112B3CE08CE0FFFF1F00FFFF0F009B
:1048F000000000000000F03F0000F03F0000F07FEB
:104900000000404301FCFFFF000000000000F07FBA
:1049100000000000000000004E2300000000000026
:104920000000000000000080000000000000F0FF18
:10493000000000000000F0BF0000E0410000F04374
:10494000FFFFEF3F00000000000000000000D03F2C
:10495000555555555555D53F000000000000E03F26
:1049600001F000FD9DED080B41EC1A0B53EC102BF0
:1049700051EC100B01F0C2FB53EC1A2B01F0BEFB03
:1049800041EC1A0B9FEDFE0B53EC102B9DED080B29
:1049900051EC100B01F0B2FB41EC1B0B9FEDFA0B3D
:1049A00051EC1A0B53EC102B01F0A8FB41EC1A0B45
:1049B0009FEDF70B53EC102B9DED080B51EC100BFA
:1049C00001F09CFB53EC1A2B01F0A4FD41EC1A0BF7
:1049D00051EC1B0B53EC1A2B01F0AAF80690CDE911
:1049E00006519DED060B53EC1B2B51EC100B01F007
:1049F00091FD53EC1A2B01F0B5FC41EC100B00F0CB
:104A0000A1B90020B6F5801F0EDA9FEDE30B53EC41
:104A1000102B9DED0E0B51EC100B01F06FFBCDE94F
:104A20000E016FF034000E4600EB2650A0F2FF3767
:104A3000C6F31300DA4940F07F6646F040568842DC
:104A4000D8BF002408DDD7498142C8BF012403DC58
:104A50000024A6F580167F1CD348784400EBC400E0
:104A60000F9690ED00CB9DED0E0B53EC1C2B51ECF3
:104A7000100B01F04FFD9DED0E0B41EC1B0B53ECA9
:104A80001C2B51EC100B01F053F841EC100B51ECC6
:104A9000190B53EC102B01F007F941EC1D0B51ECF5
:104AA0001B0B53EC1D2B01F029FB41EC1A0BBF48EB
:104AB0008DED10AB7844109590ED000B4FF0005049
:104AC00040EA660000EB84408DED080B00F5002005
:104AD00009909DED080B53EC1C2B51EC100B01F0D1
:104AE00019FD9DED0E1B53EC112B01F03BFC41EC2D
:104AF000100B53EC102B9DED100B51EC100B01F033
:104B0000FDFA9DED080B41EC1C0B53EC102B9DEDB9
:104B1000100B51EC100B01F0F1FA53EC1B2B01F0D0
:104B200021FC53EC1C2B01F0F5FC53EC1D2B01F088
:104B3000E5FA41EC1C0B53EC1A2B51EC1A0B01F06B
:104B4000DDFA41EC1B0B9A480621B0EE4B0AF0EE61
:104B50006B0A784400F0E0FAB0EE401AF0EE601A0A
:104B6000B0EE41DAF0EE61DA53EC1B2B51EC1B0B8B
:104B700001F0C4FA53EC1D2B01F0C0FA9DED100BAF
:104B800041EC1B0B53EC1A2B51EC100B00F0D0FF37
:104B900053EC1C2B01F0B2FA53EC1B2B00F0C8FFB6
:104BA0009DED100B41EC1B0B53EC102B51EC100B3B
:104BB00001F0A4FA41EC1D0B9FED7FEB53EC1E2B93
:104BC00000F0B6FF53EC1B2B00F0B2FF0890CDE9CC
:104BD00008519DED080B53EC1E2B51EC100B01F00E
:104BE00099FC53EC1D2B01F095FC53EC1B2B01F0B1
:104BF000B9FB9DED080B41EC1D0B53EC102B9DED0B
:104C0000100B51EC100B01F079FA41EC1B0B53EC3B
:104C10001A2B51EC1D0B01F071FA9DED080B41ECC4
:104C20001A0B53EC102B51EC1C0B01F067FA53ECF0
:104C30001A2B00F07DFF41EC1A0B51EC1B0B53ECCF
:104C40001A2B00F075FF0C90CDE90C519DED0C0B6B
:104C500053EC1B2B51EC100B01F05CFC53EC1A2BAA
:104C600001F080FB41EC1B0B9FED550B53EC102B1F
:104C70009DED0C0B51EC100B01F040FA41EC1A0BBE
:104C80009FED510B51EC1B0B53EC102B01F036FA3E
:104C900041EC1B0B9FED4E0B53EC102B9DED0C0BC1
:104CA00051EC100B01F02AFA53EC1B2B00F040FFE3
:104CB00041EC100B4848784400EBC40090ED001B19
:104CC00051EC100B53EC112B00F032FF41EC1B0B9D
:104CD000384601F0ACF9CDE9080153EC1B2B51EC3F
:104CE0001A0B00F025FF41EC100B3C48784400EB18
:104CF000C40090ED00CB51EC100B53EC1C2B00F0DA
:104D000017FF9DED081B53EC112B00F011FF0690CF
:104D1000CDE906519DED080B53EC102B9DED060BD4
:104D200051EC100B01F0F6FB53EC1C2B01F0F2FBE5
:104D300053EC1A2B01F0EEFB53EC1B2B01F012FB92
:104D400041EC100B9DED261B53EC102B8DED001B41
:104D500000959DED260B51EC100B01F0CFF99DED68
:104D6000000B41EC1A0B53EC102B9DED260B51EC74
:104D7000100B01F0CFFB9DED061B53EC112B2FE028
:104D8000000000604715F73FFE822B654715F73F8F
:104D900044DF5DF80BAE543E0000000000004043CD
:104DA0008E9803007AB60B00CA1E0000F81E0000A1
:104DB000021E00000000000000000000000008408B
:104DC000000000E009C7EE3FFD033ADC09C7EE3FF3
:104DD000F5015B14E02F3EBE8E1C0000481C000055
:104DE00001F08CF953EC1A2B00F0A2FE9DED060B9E
:104DF00041EC1A0B53EC102B9DED000B51EC100BFA
:104E000001F07CF9CDE90C019DED0C0B51EC1A0B76
:104E100053EC102B00F08CFECDE902010C46AA49A0
:104E20008C422FDB611A084318D19DED0C0B53EC1B
:104E3000102B9DED020B51EC100B01F06BFB41ECC4
:104E40001B0B9FEDA30B51EC1A0B53EC102B00F036
:104E50006FFE53EC1B2B01F04FFA2DD20220FBF713
:104E6000C9FA00F011FA10EE901A18EE900A8DEDC2
:104E7000020B8DED008B61F31E0003909DED020B84
:104E8000FFF7BEBB944A24F00041914214D39349EA
:104E9000214408437FF4EFAC9DED0C0B53EC102B39
:104EA0009DED020B51EC100B01F034FB53EC1A2B6F
:104EB00001F022FA7FF6DFAC24F000408849894AED
:104EC000002601EB205182422BDA481C4FF480115E
:104ED00021FA00F02044844AC0F30A517A44A1F236
:104EE000FF3192ED000B814A8DED080BCA4020EA9C
:104EF0000202C0F3130040F48010C1F1140120FA43
:104F000001F60992002CB8BF76429DED080B53ECD8
:104F1000102B9DED0C0B51EC100B01F0FBFACDE9C1
:104F20000C019DED0C0B51EC1A0B53EC102B00F007
:104F3000FFFD9FED6F0B0890CDE9085153EC102B4E
:104F40009DED080B51EC100B01F0D8F841EC1B0B58
:104F50009FED690B53EC102B9DED080B51EC100BE2
:104F600001F0CCF89DED0C0B41EC1C0B53EC102B1D
:104F70009DED080B51EC100B01F0CCFA53EC1A2B01
:104F800001F0F0F99FED5E1B53EC112B01F0B6F828
:104F900053EC1C2B00F0CCFD41EC1A0B51EC1B0B1D
:104FA00053EC1A2B00F0C4FDCDE902019DED020B7C
:104FB00053EC1B2B51EC100B01F0ACFA53EC1A2BF9
:104FC00001F0D0F99DED020B41EC1A0B53EC102BC4
:104FD00051EC100B01F092F8CDE908014A489DED23
:104FE000080B0521784400F097F89DED081B51EC63
:104FF000100B53EC112B01F081F89DED021B53ECCB
:10500000112B01F0AFF9CDE906019DED020B53EC38
:105010001A2B51EC100B01F071F853EC1A2B00F025
:1050200087FD9FED3B0B41EC1A0B53EC102B9DEDD4
:10503000060B51EC100B01F06DFA9DED060B41ECE7
:105040001B0B53EC102B9DED020B51EC100B01F0E0
:1050500055F853EC1B2B00F027FE53EC1A2B01F0F4
:1050600059FA9DED021B53EC112B01F053FA53EC4E
:10507000192B01F077F9CDE9020101EB065001157A
:105080000029C8BF039015DC9DED020B324651ECA0
:10509000100B01F0D6FBFFF709F8042808BF00F059
:1050A00003F932469DED020B51EC100B01F0C9FBE8
:1050B000CDE902019DED020B51EC180B53EC102BC6
:1050C00001F01CF8FFF73ABB000090400000000020
:1050D000FE822B654715973C00CC904000346F3F13
:1050E00001FCFFFF0000E03FD01A0000FFFF0F00AF
:1050F00000000000432EE63F396CA80C615C20BE26
:10510000EF39FAFE422EE63FA01900000000000031
:10511000000000000000004070B504462DED028B39
:105120004D1E00EBC500B0EE408AF0EE608A90EDB7
:10513000000B35F0060017D053EC182B51EC100B78
:1051400000F0DCFF41EC100B6D1E04EBC50090ED90
:10515000001B51EC100B53EC112B00F0E9FC41EC5F
:10516000100B35F00600E7D1022D36D0042D1CD0EF
:10517000062D1CBFBDEC028B70BD53EC182B51ECFF
:10518000100B00F0BBFF94ED0A1B53EC112B00F049
:10519000CFFC53EC182B00F0B1FF94ED081B53EC3F
:1051A000112B00F0C5FC41EC100B53EC182B51EC0B
:1051B000100B00F0A3FF94ED061B53EC112B00F035
:1051C000B7FC53EC182B00F099FF94ED040B53EC53
:1051D000102B00F0ADFC41EC100B53EC182B51ECF4
:1051E000100B00F08BFF94ED021B53EC112B00F021
:1051F0009FFC53EC182B00F081FF94ED001B53EC47
:10520000112B00F095FCBDEC028B41EC100B70BD36
:105210009FED070B10B553EC102B9FED070B51ECD6
:10522000100B00F041FD41EC100B10BD0000000020
:105230000000000000000000000000000000F03F3F
:1052400010B553EC102B51EC100B00F071FC41EC3D
:10525000100B10BD10B553EC112B51EC100B00F0DE
:1052600067FC41EC100B10BD9FED050B10B553EC26
:10527000102B51EC100B00F017FD41EC100B10BD82
:1052800000000000000000009FED050B10B553EC7E
:10529000102B51EC100B00F031FF41EC100B10BD46
:1052A00000000000000000709FED050B10B553ECEE
:1052B000102B51EC100B00F021FF41EC100B10BD36
:1052C000000000000000001082B0CDE9000121F0D4
:1052D000004001909DED000B02B051EC100B7047A7
:1052E0001CB5FCF7FBF8FEF79FF9FDF7E3FDFDF7B2
:1052F000B3FDFDF7C9FEFDF791FEFDF763FDFDF778
:1053000057FFFDF715FFFDF787FFFDF7B9FF52487F
:105310005049002402C053214FF6FF7532C080214E
:1053200040F8104981614C48FCF768FC08B172B63E
:10533000FEE749484949483001604FF4E131C0E98E
:1053400001140C21C460C0E904418461C461FDF70B
:1053500027FC08B172B6FEE73F48009490384049F8
:105360000194016040F24731C0E9011446F2A711EF
:105370008461C160FCF742FC08B172B6FEE73648B2
:105380000094694690380194FCF7F0FB08B172B6BE
:10539000FEE73448FBF71EFC324800219030FCF752
:1053A000D9FF304804219030FCF7D4FF2E48FCF799
:1053B000D3FC2D4808214838FCF7CCFF2A480C21A3
:1053C0004838FCF7C7FF28484830FCF7C5FC22489E
:1053D000FCF7C2FC234800214830FCF785FD1E483D
:1053E0009038FCF7B9FC224C204E6663FBF742FF75
:1053F00020480021626B12F8013B4354491C626350
:105400000429F7DD01786162417801EB4102C2EBCA
:10541000C11105EAC102164980394A81827802EB3E
:105420004203C3EBC21205EAC2028A81C07800EBD4
:105430004002C2EBC01005EAC000C8816663FBF7FA
:10544000D1FE00BFFDF7C8FFFEF7D0FCFBF756F911
:10545000F8E7000000480140D00300200050004061
:105460000010004090010020B00200200000010860
:10547000800000209C06002010B543482DED028BD3
:10548000008800F0EBFD41EC100B53EC102B9FED6E
:105490003F0B51EC100B00F007FC9FED3E8B53ECE3
:1054A000182B01F037F841EC100B53EC102B9FED4B
:1054B0003B0B51EC100B00F0F7FB00F007FB324CFC
:1054C000943CA06401F010F941EC100BFEF718FEBB
:1054D00051EC100B00F0FAFA00EE100A9FED311AB1
:1054E000DFED310A40EE010A9FED301A20EE011A7D
:1054F00021EE001A41EE000A10EE900A01F0F4F8D5
:1055000041EC100B51EC180B53EC102B00F0CCFBC2
:105510009FED271B53EC112B00F0FCFF00F0D6FA97
:1055200000EE100AA4F18000234A80ED060A416AC9
:1055300002EB8102491C82ED000AD0ED0B0A6429BE
:1055400030EE200A80ED0B0A41620BDB0021DFED1B
:105550001B0A416280EE201A9FED190A84ED141A8D
:1055600080ED0B0ADFED170A94ED140AFDF7B2FE89
:1055700094ED170A1449BCEEC00A10EE100A086038
:10558000BDEC028B10BD00001401002000000000E3
:1055900000FEAF40000000000000F03F00000000EF
:1055A0000088C34098A98839BDAE603AFC11043424
:1055B00000000000001871405C0400200000C84298
:1055C000000000000000B8423C04004070B52A48CA
:1055D0002A492B4D8088C86600EE100AD1ED1E0ABC
:1055E00091ED1C1AB8EEC00A91ED1D2A01F58074E8
:1055F00030EE600A60EE011A00EE100A91ED1F1AFB
:1056000001F18000B8EEC00A71EE600A31EE400A86
:1056100042EE001A81EEA00A84ED000A036805EB51
:1056200083015B1C81ED000A0360002241680AE0EF
:1056300005EB8206D0ED020A96ED000A521C30EE10
:10564000200A80ED020A8A42F2DB8B4201DB002253
:10565000026000EE101AD0ED020AB8EEC01A80EE19
:10566000810AF2EE040A20EE200A84ED010A9FED81
:10567000050A80ED020A70BD140100200000002020
:105680003C0600200000000070B547482DED028B5D
:10569000408800F0E3FC41EC100B53EC102B9FED25
:1056A000430B51EC100B00F0FFFA9FED428B53ECD3
:1056B000182B00F02FFF41EC100B53EC102B9FED3B
:1056C0003F0B51EC100B00F0EFFA00F0FFF9364CF5
:1056D000943CE06401F008F841EC100BFEF710FD7B
:1056E00051EC100B00F0F2F900EE100A9FED351AA4
:1056F000DFED350A40EE010A9FED341A20EE011A63
:1057000021EE001A41EE000A10EE900A00F0ECFFC4
:1057100041EC100B51EC180B53EC102B00F0C4FAB9
:105720009FED2B1B53EC112B00F0F4FE00F0CEF993
:10573000A4F18001284BC8618A6A43F82200521CF8
:105740008A62002091ED080A0BE000BF03EB8005A0
:1057500091ED0C1AD5ED000A401C70EE810AC1EDE6
:105760000C0A00EE900AB8EEE01AF0EE400AB4EE31
:10577000E01AF1EE10FAE9D300EE902AF8EEE00A12
:10578000F4EEC00AF1EE10FA01DB00208862D1EDE0
:105790000C0A80EE801A9FED110A84ED151A81ED36
:1057A0000C0ABDEC028B70BD14010020000000004B
:1057B00000FEAF40000000000000F03F00000000CD
:1057C0000088C34098A98839BDAE603AFC11043402
:1057D0000000000000187140EC05002000000000EF
:1057E00070B5924C2DED068B9FED918B9FED929BAA
:1057F000206A04F18005E8BBB0EE481AF0EE681AA2
:10580000B0EE490AF0EE690AFEF75EFEB0EE40AA7D
:10581000F0EE60AA206D00F067FF53EC1A2B00F049
:105820006DFC00F0D5FBB0EE481AF0EE681AB0EE51
:10583000490AF0EE690AA860FEF746FEB0EE401A8B
:10584000F0EE601AB0EE41AAF0EE61AA686800F0CE
:105850004BFF53EC1A2B00F051FC00F0B9FBE86051
:105860002A8904F19A01130A8B71CA71020A8A7398
:10587000C87300E003E010227148FDF74DFA206A7A
:1058800002287DD1694E803E707800285BD1B0EE51
:10589000481AF0EE681AB0EE490AF0EE690AFEF70F
:1058A00013FEB0EE40AAF0EE60AAE06B00F01CFF21
:1058B00053EC1A2B00F022FC00F08AFBB0EE481AE1
:1058C000F0EE681AB0EE490AF0EE690A2861FEF7B8
:1058D000FBFDB0EE40AAF0EE60AA686800F004FF9D
:1058E00053EC1A2B00F00AFC00F072FBB0EE481AE1
:1058F000F0EE681AB0EE490AF0EE690AE860FEF7C9
:10590000E3FDB0EE40AAF0EE60AA206D00F0ECFEE0
:1059100053EC1A2B00F0F2FB00F05AFBA8602A8A25
:1059200006F5AC71130A8B71CA71AA89130A8B73BD
:10593000CA73020A8A75C87528224148FDF7ECF936
:10594000206A02286ED1707801286BD1B0EE481A17
:10595000F0EE681AB0EE490AF0EE690AFEF7B4FDFF
:10596000B0EE40AAF0EE60AAE06B00F0BDFE53EC92
:105970001A2B00F0C3FB00F02BFBB0EE481A00E03E
:1059800050E0F0EE681AB0EE490AF0EE690A2861BC
:10599000FEF79AFDB0EE40AAF0EE60AA686800F04B
:1059A000A3FE53EC1A2B00F0A9FB00F011FBB0EEA4
:1059B000481AF0EE681AB0EE490AF0EE690AE8609B
:1059C000FEF782FDB0EE408AF0EE608A206D00F0B6
:1059D0008BFE53EC182B00F091FB00F0F9FAA86055
:1059E0001249AA89AA31140A01F80C4F4A708C7026
:1059F000CA702B8A1D0A8D71CB710D724B720D749A
:105A00004B740C764A76020A81F8202081F8210036
:105A100006492E22BDEC068BAA31BDE8704008482D
:105A2000FDF77AB9BDEC068B70BD00008000002048
:105A3000000000000000F03F0000000000002440D3
:105A40001804002000B52DED048B83B041EC190B38
:105A500000F094FC41EC180B18EE100A18EE901AA6
:105A60008DED008B002818BF0120084320F0004076
:105A7000C0F17F6000F1E040C00F14D019EE101AA1
:105A800019EE900A8DED009B002918BF01210843F3
:105A900020F00040C0F17F6000F1E040C00F04BF83
:105AA0000120FAF7A7FC51EC180B03B0BDEC048BF6
:105AB00000BD81F00041704780F00040704721F048
:105AC0000041704720F000407047000021F0004284
:105AD000A2F16052B2F5801F01F0004328BFD2F15D
