:020000040800F2
:10000000780E002069020008EF330008F72E000880
:10001000ED33000831060008813F000800000000B1
:100020000000000000000000000000004137000850
:10003000E907000800000000F13400084337000819
:10004000830200088302000883020008830200087C
:10005000830200088302000883020008830200086C
:1000600083020008830200088302000835060008A6
:10007000830200088302000883020008830200084C
:10008000830200088302000883020008830200083C
:10009000830200088302000883020008ED070008BD
:1000A000830200088302000883020008830200081C
:1000B000ED37000883020008F937000883020008C2
:1000C00083020008830200088302000883020008FC
:1000D00083020008830200088302000883020008EC
:1000E00083020008830200088302000883020008DC
:1000F000830200088302000883020008410600080A
:100100008302000883020008053800088302000803
:1001100083020008F13A0008113800088302000841
:100120004D060008830200088302000883020008CD
:10013000830200088302000883020008830200088B
:10014000830200088302000883020008830200087B
:10015000830200088302000883020008830200086B
:10016000830200088302000883020008830200085B
:1001700083020008830200088302000800000000D8
:10018000830200088302000800F002F800F05CF827
:100190000AA090E8000C82448344AAF10107DA45E2
:1001A00001D100F051F8AFF2090EBAE80F0013F0D8
:1001B000010F18BFFB1A43F001031847C469000080
:1001C000E46900000A444FF0000C10F8013B13F002
:1001D000070408BF10F8014B1D1108BF10F8015BA0
:1001E000641E05D010F8016B641E01F8016BF9D193
:1001F00013F0080F1EBF10F8014BAD1C0C1B09D1EA
:100200006D1E58BF01F801CBFAD505E014F8016B5B
:1002100001F8016B6D1EF9D59142D6D370470000ED
:100220000023002400250026103A28BF78C1FBD8FF
:10023000520728BF30C148BF0B6070471FB506F09A
:10024000A8FB1FBD10B510BD00F0E2F81146FFF786
:10025000F5FF05F011F900F000F903B4FFF7F2FF24
:1002600003BC00F003F90000094880470948004733
:10027000FEE7FEE7FEE7FEE7FEE7FEE7FEE7FEE756
:10028000FEE7FEE704480549054A064B70470000B3
:10029000DD3700088901000878080020780E00206A
:1002A000780A0020780A002053EA020C00F06980E6
:1002B0002DE9F04B4FF00006002B1FBFB3FA83F57A
:1002C00003FA05F424FA05F65E4012BF1643B2FAAB
:1002D00082F502FA05F4C5F120051EBF22FA05FCDD
:1002E00044EA0C04203556EA044C4FEA144418BF83
:1002F000641C4FF000084FF00009904271EB030CB2
:1003000039D3002919BFB1FA81F701FA07F6B0FA1B
:1003100080F700FA07F6C7F120071EBF20FA07FC96
:1003200046EA0C062037B6FBF4FCA7EB0507103FA6
:1003300007F01F0BCBF120060CFA0BFB2CFA06F68C
:1003400044BFB3460026202FA4BF5E464FF0000BEB
:100350005BEA060C08BF4FF0010B19EB0B09ABFB76
:10036000027C48EB0608C01B06FB02CC0BFB03CC4F
:1003700071EB0C01C1E70B46024641464846BDE819
:10038000F08B13B54FF000004FF00001AFF3008089
:10039000BDE81C4070474FF0000200B5134694467C
:1003A0009646203922BFA0E80C50A0E80C50B1F1CD
:1003B0002001BFF4F7AF090728BFA0E80C5048BFE1
:1003C0000CC05DF804EB890028BF40F8042B08BF7F
:1003D000704748BF20F8022B11F0804F18BF00F87B
:1003E000012B704770477047704710B500F008F850
:1003F000006810BD10B5044600F002F8046010BD9E
:10040000004870471808002000487047180800206E
:100410007546FFF7F9FFAE4605006946534620F0E2
:100420000700854618B020B5FFF72CFFBDE8204037
:100430004FF000064FF000074FF000084FF0000BA0
:1004400021F00701AC46ACE8C009ACE8C009ACE853
:10045000C009ACE8C0098D46704710B50446AFF33B
:1004600000802046BDE81040FFF7F7BE0149182084
:10047000ABBEFEE726000200704710B50146806B58
:10048000026C12F0500F05D0026CD20626D500F097
:1004900039FB10BD016C41F40071016401688A6888
:1004A00012F0405F17D1027EAAB9CA6A12F4700F27
:1004B00002D08A6852050ED44A6822F020024A60AF
:1004C000016C21F480710164016CC90403D4016CD6
:1004D00041F00101016400F013FB10BD806BC26CA0
:1004E000BDE810400846104710B5806B40210164FC
:1004F000416C41F00401416400F004FB10BD10B5F3
:10050000806B00F0FEFA10BD464910B54A6822F42F
:1005100040324A604A6843681A434A6001684A6840
:1005200022F480724A6001684A68036942EA032241
:100530004A6001684A6822F040724A6001684A686D
:1005400083681A434A6001688A6822F400628A60FC
:1005500001688A68C3681A438A60816A6FF07062B2
:10056000D14201688A6822F070628A6001688A68F4
:100570000CD0836A1A438A6001688A6822F040526C
:100580008A6001688A68C36A1A4301E022F0405217
:100590008A6001688A6822F002028A6001688A68BB
:1005A000037E42EA43028A6090F820100029016825
:1005B0004A680FD042F400624A6001684A6822F437
:1005C00060424A6001684A68174C436A04EB43334F
:1005D0001A4301E022F400624A600168CA6A22F408
:1005E0007002CA620168CA6A838B104C04EB035321
:1005F0001A43CA6201688A6822F400728A6001683C
:100600008A6890F8303042EA43228A6001688A683A
:1006100022F480628A6001688A68406942EA802028
:10062000886010BD0023014000E0FFFF0000F0FFE4
:10063000FEE70000014800F061BC00003807002020
:10064000014800F05BBC000098070020014800F062
:1006500055BC0000D806002001681823CAB2103A21
:10066000B2FBF3F2054B6FF30901032A9B5CC365F0
:1006700000D9091D8165084670470000966A000888
:1006800010B5014600208B698A6A4FF0C07453B1DF
:10069000B3F5005F15D072B1012A0CD0022A0AD03E
:1006A000032A09D104E01AB1012A06D0022A03D193
:1006B000C96AC90100D5012010BDC96AA142FAD09A
:1006C00010BD002AF7D0012AF2D0022AF3D0032A63
:1006D000F3D010BD30B50468256825F48025256069
:1006E000046863608368402B036803D099600068E6
:1006F000C26030BD9A600068C16030BD2DE9F04134
:10070000374C384DE079012801D010B106E00122C4
:1007100000E000220121284600F0DDFE607A00277B
:100720004FF400484FF08046012801D090B121E0FD
:1007300001220821284600F0CEFE01222021284671
:1007400000F0C9FE01224146284600F0C4FEA0691F
:10075000B0630FE000220821284600F0BCFE002212
:100760002021284600F0B7FE00224146284600F02E
:10077000B2FEB763207A012801D010B106E0012251
:1007800000E000220821284600F0A5FEA07A0128FA
:1007900013D000280FD100221021284600F09BFE24
:1007A00000222021284600F096FE002241462846DD
:1007B00000F091FEB763BDE8F081012210212846C8
:1007C00000F089FE01222021284600F084FE01224B
:1007D0004146284600F07FFEA069B063EBE70000C9
:1007E00000000020000C02407047000010B580217E
:1007F000064800F06BFE012803D105480168491C3A
:100800000160BDE81040802000F05CBD000C02409B
:10081000C400002072B6FEE7002229B101291AD0D7
:1008200002291BD04FF440720E490B6823F4407329
:100830000B600B6813430B600A6822F0F8020A6031
:100840000A68022303EBC00002430A60086840F410
:100850008030086070474FF48072E5E74FF4007213
:10086000E2E70000103C0240064A136823F440739C
:10087000136013681360136843F001031360017081
:1008800070470000103C0240094910B50C6824F480
:1008900040740C600C6844F440740C600C6844F0C4
:1008A00001040C600260BFF36F8F436010BD000055
:1008B000103C0240074A136823F440731360136826
:1008C00043F480731360136843F0010313600180E5
:1008D00070470000103C0240074A136823F440733D
:1008E0001360136843F400731360136843F001034B
:1008F0001360016070470000103C0240174908680F
:10090000C206174805D5C26942F01002C261102222
:100910000A600A68920605D5C26942F00802C261FF
:1009200020220A600A68520605D5C26942F0040214
:10093000C26140220A600A68120605D5C26942F007
:100940000202C26180220A600A68920705D5C26964
:1009500042F02002C2610220086070470C3C024055
:10096000F807002070B5114904460020C86100F066
:10097000B7FD06460E4D09E0601C07D024B100F01B
:10098000AFFD801BA04201D9032070BD2868C003C1
:10099000F2D42868C00701D001202860286810F030
:1009A000F200F2D0FFF7AAFF012070BDF807002087
:1009B0000C3C024078B50024009490F83C20012AB9
:1009C00019D0012280F83C200A6807230568092A0B
:1009D00013D9EE680A3A02EB420293409E43EE605E
:1009E0000B788A680A3B03EB43039A400368DD688F
:1009F0002A43DA6010E0022078BD2E6902EB420241
:100A000093409E432E610B788A6803EB43039A4020
:100A100003681D692A431A614A681F23072A13D2F3
:100A200005686E6B521E02EB820293409E436E631A
:100A30000B790A885B1E92B203EB83039A4003682A
:100A40005D6B2A435A6327E005680D2A12D22E6B8C
:100A5000D21F02EB820293409E432E630B790A88D9
:100A6000DB1F92B203EB83039A4003681D6B2A439A
:100A70001A6311E0EE6A0D3A02EB820293409E4344
:100A8000EE620B790A880D3B92B203EB83039A4026
:100A90000368DD6A2A43DA62164B0568144A9D42F0
:100AA00006D10D68122D03D1556845F480055560B7
:100AB00005689D4218D10B68102B01D0112B13D162
:100AC000536843F400035360096810290CD10A49A4
:100AD0000A4A0968B1FBF2F101EB8101490000E02B
:100AE000491E00910029FBD180F83C40002078BDD0
:100AF0000023014000200140BC01002040420F00C3
:100B000070477047704770B504004FF0000503D080
:100B1000206C002610B107E0012070BD204600F0D7
:100B20001DF8666484F83C60206CC00610D4206C0C
:100B300020F4885040F0020020642046FFF7E4FCD7
:100B40006664206C20F0020040F00100206400E0A8
:100B5000012584F83C60284670BD000070B586B061
:100B6000064614216846FFF716FC1D493068884286
:100B700034D11C480025016841F48071016000688F
:100B800000F48070059017481438016841F00101A5
:100B900001600068694600F0010005907020009037
:100BA0000320CDE90105104800F098FB104C0F48D8
:100BB000C4E900050015A560C4E903504000606168
:100BC0008000A0614011C4E907052046656200F07D
:100BD00065FA08B1FFF71EFEB463A66306B070BDE8
:100BE00000200140443802400000024010640240EE
:100BF000D806002018B50021009190F83C20012A69
:100C000007D0012280F83C2002689368DB0702D0FD
:100C100011E0022018BD936843F0010393602E4A4F
:100C20002E4B1268B2FBF3F202EB420200E0521EBE
:100C30000092002AFBD102689368DB0742D0036C64
:100C400040F20164A34343F48073036453685B057B
:100C500005D5036C23F4005343F480530364036C01
:100C6000DB0404D5436C23F00603436400E04164D5
:100C700080F83C101A496FF022031360496800683D
:100C8000CA06184906D0884224D1816811F0405F15
:100C900013D01FE08842F8D0134A904203D1D1F814
:100CA0000423D206F1D0114A904213D1D1F8041393
:100CB00001F01F011029E8D30CE0816841F0804168
:100CC000816007E0016C41F010010164416C41F06A
:100CD00001014164002018BDBC01002040420F000A
:100CE000002301400020014000210140002201407A
:100CF000F8B5044600200E46009094F83C100129F7
:100D000007D0012184F83C1021688B68DB0702D0F2
:100D100011E00220F8BD8B6843F001038B6040496D
:100D2000404B0968B1FBF3F101EB410100E0491EC2
:100D300000910029FBD121688B68DB0503D58B6806
:100D400023F480738B6021688B68DB075DD0236C94
:100D500040F20165AB4343F480732364496849055D
:100D600005D5216C21F4005141F480512164216C9E
:100D7000C90404D5616C21F00601616400E060647F
:100D800084F83C00A16B2948274DC863A16B284813
:100D90000864A16B2748C86421686FF022000860CE
:100DA0002068416841F0806141602068816841F4B9
:100DB000807181602168134632464C31A06B00F08F
:100DC000D7F968681C49C006206806D0884224D13B
:100DD000816811F0405F13D01FE08842F8D0174AB5
:100DE000904203D1D1F80423D206F1D0144A9042A4
:100DF00013D1D1F8041301F01F011029E8D30CE03E
:100E0000816841F08041816007E0206C40F0100073
:100E10002064606C40F0010060640020F8BD0000B8
:100E2000BC01002040420F00002301407B04000869
:100E3000FF040008E90400080020014000210140EF
:100E4000002201402DE9F0410446876D00F048FB87
:100E5000064694F835000025022806D080206065FB
:100E600084F834500120BDE8F0812068016821F049
:100E7000160101602068416921F080014161206C08
:100E800008B9A06C20B12068016821F00801016058
:100E90002068016821F0010101600CE000F020FBF6
:100EA000801B052807D920206065032084F83500C1
:100EB00084F83450D7E720680068C007EED194F872
:100EC0005C103F208840B860012084F8350084F829
:100ED00034500020C7E790F83510022903D0802154
:100EE000416501207047052180F8351000680168D0
:100EF00021F0010101600020704700002DE9F84356
:100F000004464FF00009CDF8009063484FF41651A5
:100F1000A56D0068B0FBF1F72E6894F85C1008200E
:100F200000FA01F131420FD021680A6852070BD54F
:100F30000A6822F004020A6094F85C108840A860F5
:100F4000606D40F00100606594F85C104FF001089E
:100F500008FA01F0304208D021684969090604D531
:100F6000A860606D40F00200606594F85C10042099
:100F70008840304208D021680968890704D5A860F4
:100F8000606D40F00400606594F85C1010208840AB
:100F9000304218D021680968090714D5A860206874
:100FA0000168490304D50068000308D5A16C07E077
:100FB0000168C90503D4016821F008010160216CB2
:100FC00009B12046884794F85C10202088403042C0
:100FD00031D021680968C9062DD5A86094F835007C
:100FE00005282068016806D0490347D5006800033A
:100FF0001DD4616C1CE021F016010160206841697C
:1010000021F080014161206C08B9A06C20B12068FA
:10101000016821F00801016094F85C103F208840CD
:10102000A86084F8358084F83490216D1FE0E16B6E
:1010300009B120468847606D00282BD0606DC0073D
:1010400014D0052084F835002068016821F00101E2
:1010500001600098401C0090B84203D820680068E6
:10106000C007F6D184F8358084F83490E16C00290B
:1010700010D001B02046BDE8F04308470168C9051B
:10108000D5D4016821F01001016084F8358084F81E
:101090003490CCE7BDE8F883BC0100202DE9F04195
:1010A000044600F01DFA06465CB1022084F83500C3
:1010B000002584F834502068016821F001010160A6
:1010C0000DE00120BDE8F08100F00AFA801B052840
:1010D00005D920206065032084F83500F2E72068F8
:1010E0000068C007F0D12268116820480140D4E9A7
:1010F00001031843D4E903363343184363691843A3
:10110000A3691843E3691843236A18430843616AD3
:10111000042903D1D4E90B13194308431060206854
:101120004069666A20F0070130460E430127042813
:101130000CD1A06A0643E06A40B12046FFF7A0FA4E
:1011400020B14020606584F83570BAE720684661B8
:101150002046FFF781FA94F85C203F21914081609E
:10116000656584F835700020ACE700003F8010F022
:101170002DE9F0410446866D90F8340000250128E1
:101180000DD0012084F8340094F835700020012F30
:1011900007D084F8340002252846BDE8F0810220FB
:1011A000FBE7022784F8357060652046FFF792FA66
:1011B00094F85C103F208840B0602068016841F0DE
:1011C00016010160206C20B12068016841F008011F
:1011D00001602068016841F001010160DCE7000066
:1011E00070B5044600F07CF90546601C02D0044846
:1011F0000078044400F074F9401BA042FAD370BD9B
:10120000B00100200348016841F000410160002066
:1012100070470000103C02402DE9F0471B4E054688
:101220001446307E1F468946012808D001203076BA
:101230004CF250384046FFF795FB18B114E00220FD
:10124000BDE8F0879DB1012D16D0022D19D02246A0
:101250003B464846FFF718FB4046FFF783FB0C4927
:101260000A6822F001020A6000213176E8E7E1B263
:101270004846FFF7F9FAEFE7A1B24846FFF71AFB35
:10128000EAE721464846FFF727FBE5E7F807002095
:10129000103C0240074900200A68002A09DA054A82
:1012A000054B0C3A1360054B13600968002900DAFE
:1012B00001207047103C024023016745AB89EFCD08
:1012C00070470000044910B50A68024202D0086065
:1012D000FFF7F6FF10BD0000143C01402DE9F84F68
:1012E000DFF8BCA10022012503264FF00F090AF107
:1012F000040BAAF1040E00BF0B6805FA02F42340A8
:10130000A34270D10F7907F00307012F01D0022FFC
:1013100016D187684FEA420806FA08FC27EA0C074C
:10132000D1F80CC00CFA08FC4CEA070CC0F808C055
:101330004768A7430C79C4F3001494403C434460CD
:101340000C79E443A4070AD0C4684FEA420C06FAB9
:101350000CF7BC438F6807FA0CF72743C7600C797A
:1013600004F00304022C12D1D40800EB840CDCF846
:1013700020405707FF0E09FA07F824EA0804D1F8BD
:10138000108008FA07F848EA0408CCF820800468BE
:101390004FEA420C06FA0CF7BC430F7907F003073B
:1013A00007FA0CF7274307604C6814F4403F70D0ED
:1013B0003C4C276847F480472760246822F00307E5
:1013C00004F480440094384C07EB040CDCF8084823
:1013D00097074FEA177809FA08F7BC43334FB8422A
:1013E00002D1002724E054E0314FB84201D1012757
:1013F0001EE0304FB84201D1022719E02E4FB8420B
:1014000001D1032714E02D4FB84201D104270FE08A
:101410002B4FB84201D105270AE02A4FB84201D12B
:10142000062705E0284FB84201D1072700E008272A
:1014300007FA08F72743CCF80878DAF8004057464F
:10144000D1F804C09C435FEACC2C00D51C433C601F
:10145000DBF800405F46D1F804C09C435FEA8C2C67
:1014600000D51C433C60DEF800407746D1F804C04C
:101470009C435FEA8C3C00D51C433C60084F083F0E
:101480003C68D1F804C09C435FEACC3C00D51C43C7
:101490003C60521C102AFFF42FAFBDE8F88F00000B
:1014A000083C014044380240003001400000024046
:1014B0000004024000080240000C024000100240FC
:1014C0000014024000180240001C0240006908405D
:1014D00000D0012070470AB1816170470904FBE721
:1014E0000148806870470000B00100200248816810
:1014F0000278114481607047B00100200B4810B59C
:10150000016841F400710160016841F4806101608B
:10151000016841F480710160032000F06FF80F2032
:1015200000F006F800F024F8002010BD003C024056
:1015300070B50D4D04464FF47A712878B1FBF0F088
:101540000A490968B1FBF0F000F00AFB48B9102C19
:1015500007D200222146501E00F030F800206C60B7
:1015600070BD012070BD0000B0010020BC01002052
:101570000A4808B5016841F480410160006800F440
:10158000804000900548001F016841F080510160D3
:10159000006800F08050009008BD00004438024010
:1015A000002809DB00F01F02012191404009800062
:1015B00000F1E020C0F8001170470000F0B40E4BBD
:1015C0001B680C46C3F30223C3F10705042D00D9A1
:1015D0000425191D072901D2002300E0DB1E012686
:1015E00006FA05F1491E214099409E40761E16409C
:1015F0003143F0BC02F03EBE0CED00E0064900F0C5
:10160000070208684FF6FF03184040EA0220034A29
:1016100010430860704700000CED00E00000FA0580
:101620002DE9F0470E46050065D0DFF81481D8F8A3
:101630000000F7B200F00700B04207D288F800704F
:10164000D8F8000000F00700B04254D128683D4CA3
:10165000810712D5400703D5206840F4E050206090
:101660002878000703D5206840F460402060206897
:10167000A96820F0F000084320602878C0072DD02A
:10168000304968680839012812D0022813D003288D
:1016900011D00968890700292DDA216821F003019A
:1016A00001432160FFF71CFF814641F2883A0EE0BA
:1016B00009688903EFE709688901ECE7FFF710FF84
:1016C000A0EB0901514502D90320BDE8F08720684D
:1016D000696800F00C00B0EB810FEFD1D8F8001072
:1016E000404601F00701B14207D90770006800F0D9
:1016F0000700B04201D00120E7E72878400705D570
:101700002068E96820F4E05008432060287800074A
:1017100006D52068296920F4604040EAC1002060B5
:1017200000F038F82168084AC1F30311515CC84041
:101730000649086006480068FFF7FAFE0020C4E783
:10174000003C0240083802409E6A0008BC010020AC
:10175000B40100200448054900680968044AC1F33F
:101760008221515CC8407047BC010020083802400B
:10177000AE6A00080448054900680968044AC1F3D4
:101780004231515CC8407047BC010020083802401B
:10179000AE6A0008154810B5006810F00C02144835
:1017A00013D04110042A0FD0082A0ED10F4C241F49
:1017B0002268236802F03F025B0207D52068C0F36D
:1017C0008810A0FB010106E0084610BD2168C1F3A6
:1017D0008811A1FB00010023FEF766FD2168C1F31B
:1017E0000141491C4900B0FBF1F010BD083802402E
:1017F0000024F4002DE9F84F04006ED02078DFF8C3
:101800004C93C007A9F104054AD009F1040001680E
:10181000C1F38101012908D00068C0F381000228CA
:101820000AD1D9F80000400206D52868800337D5D0
:1018300060680028E1D033E06068B0F5803F10D0E8
:10184000B0F5A02F286810D020F4803028602868D8
:1018500020F4802028606068A8B1FFF741FE0646AA
:101860000DE0286840F48030F4E740F480202860E0
:10187000F7E700BFFFF734FE801B642873D82868A1
:101880008003F7D50CE0FFF72BFE064605E000BF0E
:10189000FFF726FE801B6428F0D828688003F7D461
:1018A0002078DFF8AC8280074FF0000A3ED5A748C9
:1018B000001D016811F00C0F08D00068C0F3810012
:1018C00002280BD1D9F80000400207D4286880070D
:1018D00016D5E068012800D112E033E1E068B8B124
:1018E0000120C8F80000FFF7FBFD064605E000BF39
:1018F000FFF7F6FD801B0228C0D828688007F7D5BF
:101900002868216920F0F80040EAC10028600DE055
:10191000C8F800A0FFF7E4FD064604E0FFF7E0FD8D
:10192000801B02281FD828688007F7D4207800077A
:1019300022D5864F87486169703771B101210160F6
:10194000FFF7CEFD064604E0FFF7CAFD801B022824
:1019500009D838688007F7D50EE0C0F800A0FFF777
:10196000BFFD064605E082E0FFF7BAFD801B0228B6
:101970007DD838688007F7D42078400768D5DFF82D
:10198000CCB100270BF13C0BDBF80000C0000BD4FE
:10199000DBF8001041F08051CBF80010DBF80000BC
:1019A000012700F0805000906B4E3068C00510D4C5
:1019B000306840F480703060FFF792FD009005E0E1
:1019C000FFF78EFD0099401A022850D83068C005F4
:1019D000F6D55E4EA0686C3601280FD00528306819
:1019E00010D020F001003060306820F0040030603A
:1019F000A068B8B1FFF774FD00900FE0306840F0C8
:101A00000100F4E740F004003060F7E7FFF768FDFD
:101A10000099411A41F28830814266D830688007C7
:101A2000F4D50EE0FFF75CFD009007E0FFF758FDEE
:101A30000099411A41F28830814256D830688007B7
:101A4000F4D42FB1DBF8001021F08051CBF8001056
:101A5000A069C8B33D49091D0968C1F38101022984
:101A60004AD00228504607D0C8F8600000E03CE0A9
:101A7000FFF736FD04463BE04746C8F86000FFF735
:101A80002FFD064605E000BFFFF72AFD801B022858
:101A90002BD828688001F7D4D4E907010843A16A4C
:101AA0002E4A490802EB0141626A41EA8211084369
:101AB00094F82C1040EA0161C9F800100120386642
:101AC000FFF70EFD044606E03EE000BFFFF708FD0D
:101AD000001B022809D828688001F7D534E000BF30
:101AE000FFF7FEFC001B022802D90320BDE8F88F97
:101AF00028688001F4D427E00128F7D0D9F8000045
:101B0000E26900F4800191421CD1226A00F03F0199
:101B1000914217D147F6C071626A0140B1EB821F52
:101B200010D1A26A4FF0FF3300F4403103EB5202B0
:101B3000B1EB024F06D194F82C1000F07060B0EBBE
:101B4000016F01D00120D1E70020CFE70438024027
:101B500000004742800E4742007000400000FFFF37
:101B600010B5401EB0F1807F01D3012010BD4FF0B1
:101B7000E02460610F21601702F07CFB0020A0616F
:101B800007202061002010BD7047704770B590F8A5
:101B90003C20012A32D0012480F83C40022280F807
:101BA0003D2003685A689D6822F070060A68324337
:101BB0005A60134B02689A4214D0B2F1804F11D090
:101BC000104B9A420ED0104B9A420BD00F4B9A42B8
:101BD00008D00F4B9A4205D00E4B9A4202D00E4BC2
:101BE0009A4204D1496825F080031943916080F836
:101BF0003D40002180F83C10084670BD022070BDB9
:101C0000000001400004004000080040000C0040BB
:101C100000040140004001400018004010B50400DD
:101C200003D094F83D0010B107E0012010BD002062
:101C300084F83C00204600F01FF8022084F83D00A4
:101C4000211D206801F0EAFD012084F8460084F897
:101C50003E0084F83F0084F8400084F8410084F896
:101C6000420084F8430084F8440084F8450084F876
:101C70003D00002010BD000008B502683748384913
:101C8000824207D1086840F001000860086800F04F
:101C9000010056E03248001FB2F1804F11D0314BA5
:101CA0009A421DD1016841F00401016000680022E0
:101CB00000F00400009001211E20FFF77FFC1E2091
:101CC00031E0016841F0010101600068002200F08C
:101CD0000100009011461C20FFF770FC1C2022E040
:101CE000214B9A420ED1016841F008010160006861
:101CF000002200F00800009011463220FFF75EFC41
:101D0000322010E0194B9A4211D1016841F01001C4
:101D100001600068002200F01000009002213620CF
:101D2000FFF74CFC3620BDE80840FFF739BC1048EF
:101D3000824208D1086840F480300860086800F4E6
:101D40008030009008BD0B488242FBD1086840F407
:101D500080200860086800F48020F2E7000001405D
:101D60004438024000080040000C004000100040D1
:101D7000004001400048014090F83D10012901D089
:101D800001207047022180F83D100168CA6842F0C6
:101D90000102CA6000681149884214D0B0F1804F36
:101DA00011D00F4988420ED00E4988420BD00E49FF
:101DB000884208D00D49884205D00D49884202D09A
:101DC0000C49884204D1816801F00701062903D03B
:101DD000016841F0010101600020704700000140EE
:101DE0000004004000080040000C004000040140D6
:101DF000004001400018004001680A6A41F21113D6
:101E00001A4207D10A6A9B101A4203D10A6822F0CB
:101E100001020A60012180F83D100020704701682E
:101E2000CA6822F00102CA6001680A6A41F211130D
:101E30001A4207D10A6A9B101A4203D10A6822F09B
:101E400001020A60012180F83D100020704770B542
:101E5000044690F83C000025012817D0012684F89C
:101E60003C60022084F83D002068826822F07702FE
:101E700022F47F4282600868502838D00DDC202888
:101E80004FD005DC90B3102811D14AE0022070BD7C
:101E9000302846D040280AD13BE060282FD0702857
:101EA0000DD0B0F5805F03D0B0F5005F12D00125F2
:101EB00084F83D60002084F83C00284670BDCB6863
:101EC000D1E90121206801F01AFD2068816841F004
:101ED000770109E0CB68D1E90121206801F00FFD0D
:101EE0002068816841F480418160E1E719E0CA68B7
:101EF0004968206801F0D8FD5021206806E0CA68D2
:101F00004968206801F0E1FD6021206801F001FDD1
:101F1000CEE7CA684968206801F0C6FD4021206804
:101F2000F4E7226801461046F0E7704730B50446F2
:101F3000002551B104290DD0082910D094F8410092
:101F400094F84520012811D10EE094F83E0094F851
:101F50004220F7E794F83F0094F84320F2E794F822
:101F6000400094F84420EDE7012A01D0012030BD63
:101F7000022059B1042912D0082919D084F841004F
:101F800084F845000C2944D0012540E084F83E0047
:101F900084F842002068C26842F0020210E084F82F
:101FA0003F0084F843002068C26842F0040207E062
:101FB00084F8400084F844002068C26842F00802B7
:101FC000C2600122206801F08DFC1449206888421B
:101FD00014D0B0F1804F11D0114988420ED0114970
:101FE00088420BD01049884208D01049884205D059
:101FF0000F49884202D00F49884204D1816801F01C
:102000000701062903D0016841F00101016028465B
:1020100030BD2068C26842F01002D1E700000140E4
:102020000004004000080040000C00400004014093
:10203000004001400018004070B504460068016986
:102040004FF00005C943890715D4C168C943890702
:1020500011D4E91E01610120207720688069800782
:10206000204602D0FFF761FF04E000F0EBF82046C5
:1020700000F090F9257720680169C943490717D412
:10208000C168C943490713D46FF0040101610220FC
:1020900020772068806910F4407F204602D0FFF747
:1020A00044FF04E000F0CEF8204600F073F92577F5
:1020B00020680169C943090716D4C168C9430907E3
:1020C00012D46FF008010161042020772068C069F4
:1020D0008007204602D0FFF728FF04E000F0B2F8A6
:1020E000204600F057F9257720680169C943C906E1
:1020F00017D4C168C943C90613D46FF01001016138
:10210000082020772068C06910F4407F204602D064
:10211000FFF70BFF04E000F095F8204600F03AF9D5
:10212000257720680169C943C90708D1C168C94337
:10213000C90704D1891E0161204600F005FA206814
:102140000169C943090609D4C168C943090605D410
:102150006FF0800101612046FFF716FD20680169DC
:10216000C943490609D4C168C943490605D46FF07B
:1021700040010161204600F06DFA20680169C94301
:1021800089060BD4C168C943890607D46FF02001C2
:1021900001612046BDE87040FFF7F7BC70BD00004C
:1021A000F0B587B0044614216846FEF7F4F82068BD
:1021B000002420490225204EB0F1804F16D01F4A3E
:1021C000904211D1086840F0020008600868694632
:1021D00000F00200059003200090CDE90154304644
:1021E000CDE90345FFF77AF807B0F0BD086840F085
:1021F00001000860086800F001000590086840F0E0
:1022000002000860086801270097CDE9015400F03A
:102210000200CDE90470694603940948FFF75EF8AF
:1022200008200090CDE90154CDE9034769463046C6
:10223000D8E70000303802400004024000040040AB
:1022400000000240704770B5044690F83C0000263C
:102250000D4601280FD0012084F83C006AB1042A01
:102260001DD0082A2FD00C2A3FD00126002084F848
:102270003C00304670BD022070BD206801F052FB6A
:102280002068816941F0080181612068816921F03D
:1022900004018161206881692A69114311E0206885
:1022A00001F070FB2068816941F400618161206860
:1022B000816921F480618161206881692A6941EA2C
:1022C00002218161D2E7206801F092FB2068C16998
:1022D00041F00801C1612068C16921F00401C161B8
:1022E0002068C1692A69114311E0206801F0B4FB3C
:1022F0002068C16941F40061C1612068C16921F4AD
:102300008061C1612068C1692A6941EA0221C16115
:10231000ACE710B5040003D094F83D0010B107E01D
:10232000012010BD002084F83C00204600F01EF87B
:10233000022084F83D00211D206801F06FFA012081
:1023400084F8460084F83E0084F83F0084F840009A
:1023500084F8410084F8420084F8430084F8440083
:1023600084F8450084F83D00002010BD08B50068E1
:102370000649884208D10648016841F0020101601F
:10238000006800F00200009008BD0000000400405A
:10239000403802407047000030B500250446022254
:1023A00049B1042912D008294CD094F841000128E1
:1023B00053D0012030BD94F83E000128F9D184F8B3
:1023C0003E202068C26842F0020209E094F83F0013
:1023D0000128EED184F83F202068C26842F0040250
:1023E000C2600122206801F07DFA21492068214A5B
:1023F000884201D0904203D1436C43F400434364CC
:102400002068884213D0B0F1804F10D01A4988421A
:102410000DD01A4988420AD01949884207D0904203
:1024200005D01849884202D01749884204D18168F2
:1024300001F00701062903D0016841F001010160A4
:10244000284630BD94F840000128B2D184F84020DD
:102450002068C26842F00802C2E784F841200C29D3
:1024600001D00125ECE72068C26842F01002B7E70E
:10247000000001400004014000040040000800404A
:10248000000C0040004001400018004070B50D00F5
:1024900004464FF0000607D0042D0AD0082D0DD0B9
:1024A0000C2D10D001263FE02068C16821F0020108
:1024B0000DE02068C16821F0040108E02068C168CF
:1024C00021F0080103E02068C16821F01001C1601B
:1024D00000222946206801F005FA194B41F211113A
:1024E00020688A10984202D0164B984209D1036A9C
:1024F0000B4206D1036A134203D1436C23F4004319
:1025000043642068036A0B4206D1016A114203D179
:10251000016821F00101016001203DB1042D08D0C6
:10252000082D09D084F84100304670BD84F83E0083
:10253000FAE784F83F00F7E784F84000F4E700008A
:10254000000001400004014070B504460068B0F18D
:10255000804F31D13549F7EE000A012091ED160A7E
:1025600030EE200A81ED160AD1ED170AB4EEE00A2A
:10257000F1EE10FA00DB0870D1ED180AB4EEE00AB3
:10258000F1EE10FA00DB4870D1ED190AB4EEE00A62
:10259000F1EE10FA00DB8870D1ED1A0AB4EEE00A11
:1025A000F1EE10FA00DBC870D1ED1B0AB4EEE00AC0
:1025B000F1EE10FA00DB08711D49206888421DD138
:1025C0001A4D0020803595ED110AB8EEC00A85ED50
:1025D0000F0A6864A86410EE100A04F069F99FED10
:1025E000151B53EC112B03F06DFE9FED141B53ECE8
:1025F000112B03F03DFC03F04DFB286411492068CA
:1026000088420AD1032210491048FEF771FB03F0FB
:10261000FFF803F0A1F802F0F5FF0D4920688842A9
:1026200003D1BDE8704003F09FB970BD00000020E9
:10263000000C0040986E1283C02A59400000000030
:10264000000069400008004018010020C00100207F
:1026500000100040704738B5044690F83E0020282E
:1026600022D181B17AB194F83C0001281CD001201C
:1026700084F83C002063204601F0FCFB002803D1D5
:10268000216B012901D0012038BD21680A68496801
:10269000009121680C3151E8002F42F0100241E80E
:1026A0000023002BF5D138BD022038BD2DE9F05FA5
:1026B000BB4F7869401C7861D7E90821B94CFB69A8
:1026C0000020255C042D02D0082D06D00AE0261833
:1026D000767836B15A2E04D012E026187678042E79
:1026E0000ED10121112D0BD125186D78062D01D0A9
:1026F000052D02D1022101220023072D00D1032143
:10270000401C2428DDDDFB61DFF89482C7E9082145
:102710004FF000094FF0010AA8F18008012970D19B
:1027200098F8060018B903F051FA88F806A09D49F8
:102730002422A1F51870FFF78EFFDFF864B20025A0
:102740000BF1100B605D112808D020280FD006284F
:102750001FD0042827D060282FD0A8E06019407827
:10276000022803D1C7F8249088F806909FE06019EA
:102770004178062904D0042905D0022906D096E024
:102780000079B86293E00079386390E0007978636B
:102790008DE060198178202904D1C178002901D108
:1027A0008079F86283E060194178A52909D08078A2
:1027B0005B2806D05D2804D079E0601940780128B4
:1027C00075D1B86A10B18BF8000007E07648B8639D
:1027D000FEF760FDB86B01788BF80010F86A10B155
:1027E0008BF8010008E07048401CB863FEF752FD0A
:1027F000B86B01788BF80110786B18B18BF8020078
:1028000009E058E06848801CB863FEF743FDB86BE8
:1028100001788BF80210386B10B18BF8030008E0D8
:102820006148C01CB863FEF735FDB86B01788BF8C2
:102830000310FEF72FFD5C48B86302210420FDF76A
:10284000EBFF002600231BF806201846B96BFEF7A5
:10285000E3FCB86B761C401CB863042EF2DDFEF777
:10286000D1FC514EBE63FEF715FD4E4900202431C8
:10287000BA6B12F8013B0B54401CBA630428F7DD15
:102880000878B8624A78642012FB00F0A8F80C00BF
:102890008B78642013FB00F0A8F80E00C878642140
:1028A00010FB01F0A8F81000BE63FEF7ABFC6D1C36
:1028B000242D7FF747AF786A022816D139492422A0
:1028C000A1F51870FFF7C7FE00204946225C112AC7
:1028D00004D122185278042A00D17962401C24289D
:1028E000F4DD24212F48FDF756FD786A03284FD1E7
:1028F0002C492422A1F51870FFF7ADFE0020215CC1
:10290000112942D121184978022914D0082915D05B
:102910000C2916D0092917D00D2918D00A2919D049
:102920000E291AD00B291BD00F291CD011291DD01C
:10293000032928D029E0C7F8249026E088F807A0CA
:1029400023E088F8079020E088F809A01DE088F8C7
:1029500009901AE088F808A017E088F8089014E0B9
:1029600088F80AA011E088F80A900EE0BFF34F8FB4
:102970000E4801680E4A01F4E06111430160BFF3A3
:102980004F8F00BFFDE788F80BA0401C2428B6DD60
:10299000BDE8F05F03492422A1F51870FFF75BBE84
:1029A00080000020A8060020000001080CED00E0D7
:1029B0000400FA0570470000F8B50168044608688D
:1029C000CA684B6910F00F0F4FF0000559D003F0A3
:1029D000010602F49077374365D0C10705D0D105D1
:1029E00003D5216C41F001012164410705D5D907C8
:1029F00003D0216C41F002012164810705D5D9077C
:102A000003D0216C41F004012164010707D502F0D5
:102A10002001314303D0216C41F008012164216C75
:102A200000293AD0800604D5900602D5204601F050
:102A30003BF920684069216CC0F38010090700D47D
:102A400060B3204601F0FBF820684069400621D5BC
:102A50002068143050E8001F21F0400140E80012C7
:102A6000002AF5D1A06BA8B16C490165A06BFEF7F7
:102A700032FA002811D0A06B016D01B0BDE8F04022
:102A8000084783060FD593060DD52046BDE8F840CC
:102A900001F00AB92046FFF78DFFF8BD2046FFF789
:102AA00089FF2564F8BD266B2023012E79D1C60647
:102AB00077D5D60675D508684868009048694006FD
:102AC00040D5A16B086840680004000CEAD0A28DD4
:102AD0008242E7D9E085C869B0F5807F2DD02068B3
:102AE0000C3050E8001F21F4807140E80012002AE9
:102AF000F5D12068143050E8001F21F0010140E8B2
:102B00000012002AF5D12068143050E8001F21F08F
:102B1000400140E80012002AF5D184F83E302563D8
:102B200020680C3050E8001F21F0100140E800122E
:102B3000002AF5D1A06BFEF785F9A08DE18D401A32
:102B400081B229E0A08DE18D401A81B2E08D00288C
:102B5000A8D00029A6D020680C3050E8002F22F41D
:102B6000907240E80026002EF5D12068143050E81D
:102B7000002F22F0010240E80026002EF5D184F853
:102B80003E30256320680C3050E8002F22F0100200
:102B900040E80023002BF5D12046FFF787FDF8BD64
:102BA000FFE705062BD5150629D594F83D00212809
:102BB000F5D1A068B0F5805F01D12069B0B1206A7D
:102BC000411C2162216800784860E08C401E0004AE
:102BD000000CE084E3D12068C16821F08001C1606D
:102BE0002068C16841F04001C160D8E7206A0088D0
:102BF000C0F308004860206A801C2062E5E74006B8
:102C0000CDD55006CBD5CA68204622F04002CA6016
:102C100084F83D3000F060F9C1E70000FD3A00089B
:102C200070B5040004D094F83D00002510B106E012
:102C3000012070BD84F83C50204600F023F8242089
:102C400084F83D002068C16821F40051C16020462D
:102C500001F08AF82068016921F49041016120683F
:102C6000416921F02A0141612068C16841F40051A5
:102C7000C1602564202084F83D0084F83E000020D7
:102C800070BD00002DE9F04186B00646142168466B
:102C9000FDF781FB38493068884269D13748002404
:102CA000016841F480110160006800F48010059013
:102CB00032481038016841F004010160016801F0F8
:102CC00004010591016841F00801016000680225D6
:102CD00000F0080005904FF48050CDE9000502AAED
:102CE00003274FF0080882E8900169462448FEF760
:102CF000F5FA0420CDE9000502AA694682E89001B0
:102D00002048FEF7EBFA214D1F484FF48068C705B5
:102D10002860C5E90174C5E903486C61AC61EC61E8
:102D20002C6228466C62FEF7B9F908B1FDF772FD16
:102D3000B563AE631448164DA830E5E8020740209D
:102D4000A5E81101124845F81449AC61EC612C6208
:102D50006C62FEF7A3F908B1FDF75CFD7563002214
:102D600002213520AE63FEF729FC3520FEF718FC62
:102D700006B0BDE8F081000000500040403802403D
:102D800000080240000C024010600240380700209A
:102D900098070020704770472DE9F843044690F8E3
:102DA0003D001F4616460D4620284CD1C5B1BEB188
:102DB00094F83C00012846D0012084F83C004FF0F4
:102DC0000008C4F84080212084F83D00FEF788FB0D
:102DD000A6848146E684A068B0F5805F03D004E055
:102DE0000120BDE8F883206928B12E465FF0000578
:102DF00084F83C800EE00026FAE78021204601F0AE
:102E000083F8A0B9AEB116F8010B21684860E08CD8
:102E1000401EE084E08C4B464FF0000200970028F3
:102E2000EBD14FF04001204601F06EF830B10320A5
:102E3000D7E735F8020BC0F30800E6E7202084F856
:102E40003D000020CDE70220CBE7000070B504462E
:102E500090F83D00202836D191B38AB394F83C0015
:102E6000012830D0012084F83C002162A284E28451
:102E700000252564212084F83D00636B1348D86346
:102E8000636B13481864636B1248D864606B134615
:102E900005652668606B321DFEF76AF921686FF0E0
:102EA0004000086084F83C502068143050E8001F4F
:102EB00041F0800140E80012002AF5D1002070BDE9
:102EC000FFE70120FBE70220F9E70000F33B0008E1
:102ED000353C00080D3B000804488169491C8161AC
:102EE00003492422A1F51870FFF7B5BB800000202C
:102EF000A80600207047FEE77FB500212148009119
:102F0000019102911E4A0391026001244FF4803224
:102F10000461C0E90121017680F820101A4AC0E955
:102F20000A210325C561C16080F830104461FDF7B6
:102F3000EAFD08B172B6FEE70420CDE900040720DF
:102F4000029069460F48FDF735FD08B172B6FEE7FD
:102F5000062000900220019069460A48FDF72AFDEC
:102F600008B172B6FEE70520CDE9000569460548BF
:102F7000FDF720FD002801D072B6FEE77FBD0000FE
:102F800000200140C00100200100000F154808B5D5
:102F9000016841F480010160016801F48001009141
:102FA000016841F4001101600068002200F4001083
:102FB000009011460B20FEF701FB0B20FEF7F0FA04
:102FC000002211462F20FEF7F9FA2F20FEF7E8FA2B
:102FD000002201213820FEF7F1FABDE80840382030
:102FE000FEF7DEBA303802402DE9F04786B01421F2
:102FF0006846FDF7D0F94C480024016841F004010F
:103000000160016801F004010591016841F080014F
:103010000160016801F080010591016841F0010142
:103020000160016801F001010591016841F00201B0
:103030000160016801F002010591016841F0080199
:1030400001600068DFF8E48000F0080005900022CD
:103050001C214046FEF73FFADFF8D49000220621FB
:103060004846FEF738FADFF8CCA0002249F23B01CF
:103070005046FEF730FA42F2030002258DE8310097
:1030800069464046FEF72AF9AF0301260097CDE9CD
:10309000014669464046FEF721F91C20CDE90006AD
:1030A00069464046CDE90245FEF718F90620CDE90C
:1030B000000669464846CDE90245FEF70FF90820AB
:1030C0008DE8310069464846FEF708F941F23B00B9
:1030D0000090CDE90164694650460394FEF7FEF87E
:1030E00028038DE8310069465046FEF7F7F8CDE930
:1030F000007669465046CDE90245FEF7EFF880209C
:1031000000904FF48810CDE9010569465046FEF75E
:10311000E5F8002211461720FEF750FA1720FEF7B7
:103120003FFA06B0BDE8F0873038024000080240A0
:1031300000000240000C024010B586B00024184880
:10314000009401940294039404941449059401603A
:103150005321C0E901144FF6FF71C0E90314802127
:10316000C0E90541FEF75AFD08B172B6FEE74FF41B
:103170008050009069460A48FEF769FE08B172B6B1
:10318000FEE7049404A906480594FEF7FFFC002816
:1031900001D072B6FEE706B010BD0000000001408D
:1031A0000802002010B58EB00024079408940994FA
:1031B0000A940B941C2168460C94FDF7ECF8224805
:1031C0004FF0804101605321C0E9011440F28F119A
:1031D000C0E903148461FEF721FD08B172B6FEE771
:1031E0004FF48050079007A91748FEF730FE08B14A
:1031F00072B6FEE71448FFF78CF808B172B6FEE726
:103200000B940BA910480C94FEF7C0FC08B172B6E1
:10321000FEE76020CDE900040294002269460A48D6
:103220000494FFF710F808B172B6FEE7042269466D
:103230000548FFF708F808B172B6FEE70248FEF746
:10324000AFFF0EB010BD00005002002010B58AB0D4
:10325000002407941C2168460894FDF79CF81A483E
:10326000184901605321C0E9011442F20F71C0E90D
:1032700003148461FFF74DF808B172B6FEE70794B6
:1032800007A911480894FEF781FC08B172B6FEE761
:103290006020CDE900040294082269460A4804949B
:1032A000FEF7D1FF08B172B6FEE70C226946064868
:1032B000FEF7C9FF08B172B6FEE70348FEF770FFDC
:1032C0000AB010BD000400409802002010B586B07E
:1032D0000024174800940194029403940494134921
:1032E0000594016040F24731C0E9011440F2E73132
:1032F000C0E903148461FEF791FC08B172B6FEE7E1
:103300004FF48050009069460948FEF7A0FD08B1CF
:1033100072B6FEE7049404A905480594FEF736FC4E
:10332000002801D072B6FEE706B010BD00080040CC
:10333000E002002010B586B00024174800940194E4
:1033400002940394049413490594016042F2CF015E
:10335000C0E9011442F20F71C0E903148461FEF761
:103360005DFC08B172B6FEE74FF4805000906946EC
:103370000948FEF76CFD08B172B6FEE7049404A993
:1033800005480594FEF702FC002801D072B6FEE75E
:1033900006B010BD000C0040280300201FB500211E
:1033A00011480091019102910E4A0391026042F28C
:1033B000CF02C0E9012142F20F72C0E9032181610D
:1033C000FEF72CFC08B172B6FEE74FF48050009077
:1033D00069460548FEF73BFD002801D072B6FEE7BE
:1033E0001FBD000000400140B8030020FEE7FEE7DB
:1033F00070B5374D2DED088B30EEC08A05F1800495
:1034000085ED0E8A95ED0F0A20EE08BA84ED19BA03
:10341000D4ED17BA38EE2B0A10EE100A03F048FA72
:1034200041EC190B286C03F043FA9FED2A1B53EC77
:10343000112B02F047FF9FED29AB53EC1A2B02F042
:1034400041FF53EC192B02F03DFF02F023FC38EE54
:103450006B0A08EE900AC4ED1A8A10EE100A03F007
:1034600027FA41EC190B686C03F022FA53EC1A2B83
:1034700002F0FEFC53EC192B02F024FF02F00AFCD0
:103480007BEE280A00EE100A164984ED1B0A30EE86
:10349000800A10EE100A84ED180A84ED178A88421B
:1034A00003DB9FED110A84ED180AB5EEC00AF1EEB8
:1034B00010FA03D29FED0D0A84ED180A10EE100ADF
:1034C00003F0F6F9BDEC088B41EC100B70BD000069
:1034D00000000020000000000000E03F9A99999948
:1034E0009999B93F00401C46007014460000000046
:1034F000704700002DE9F05F894F8A4EDFF828926F
:103500004FF40048A6F18005FC0406E001220421E6
:103510004846FDF7E0FF6869606341463846FDF7BD
:10352000D5FF28B9F069012802D1306A0028EDD012
:103530004146BB463846FDF7C9FF002768B16763BF
:1035400000217A48FEF7A2FF9FED790A002285ED5F
:10355000160A02215846FDF7BEFF306A01286ED1D7
:10356000F06900286BD1C24641465846FDF7AEFFD0
:10357000002864D000216D48FEF70EFF09E06B487B
:10358000FEF7FAFB68696063002204214846FDF7F4
:10359000A2FF95ED160AD5ED170AB4EEE00AF1EE9A
:1035A00010FAECD32878DFF88C81012814D16763F6
:1035B0005E48FEF734FC95ED170A012285ED160AE8
:1035C00011464046FDF787FFA889FDF709FE002256
:1035D00001214046FDF77FFF4FF47A70FDF700FEB2
:1035E00009E05248FEF7C8FB6869606300220421C5
:1035F0004846FDF770FF95ED160AD5ED180AB4EEB2
:10360000E00AF1EE10FAECD36878012807D14748B8
:10361000FEF705FC676395ED180A85ED160A012291
:1036200020214046FDF757FF012208214046FDF7C3
:1036300052FF4FF4FA6B5846FDF7D2FD0AE06DE0F9
:103640003A48FEF799FB012204214846FDF743FF63
:103650006869606395ED160AD5ED190AB4EEE00AC3
:10366000F1EE10FAECD3A878012857D1A146676390
:103670002E48FEF7D4FBE889FDF7B2FD01220221B6
:1036800044464046FDF727FF012251462046FDF7FC
:1036900022FF002406E000BFC9F838400A20FDF7E9
:1036A0009FFD641CA8698442F6DD288AA0F5D850E5
:1036B0005838FDF795FDAC69002C06DBC9F8384099
:1036C0000A20FDF78DFD641EF8D5002251464446C0
:1036D0004046FDF700FF5846FDF782FD00222021FD
:1036E0002046FDF7F8FE002208212046FDF7F3FEF4
:1036F000002202212046FDF7EEFE40F6B830FDF72D
:103700006FFD64230A220C490C48FFF745FB01209A
:103710007762C6E907072F706F70AF70BDE8F09F42
:1037200000080240800000200000024050020020FB
:1037300000000000000C0240A4010020480400200A
:103740007047FDF7D3BE000030B593B03021684616
:10375000FCF721FE14210CA8FCF71DFE1D480025D6
:10376000016841F080510160006800F080501190C4
:103770001948016841F4804101600068022400F4A6
:103780008040119001200090000401908001CDE95B
:10379000064008AA0420A82182E813000B9068467E
:1037A000FEF728F808B172B6FEE70CA90F2081E8F1
:1037B00031004FF4A0500F904FF48050109005212D
:1037C0000CA8FDF72DFF002801D072B6FEE713B05C
:1037D00030BD0000403802400070004002480168DF
:1037E00041F470010160704788ED00E00148FEF788
:1037F00023BC0000500200200148FEF71DBC000061
:10380000E00200200148FEF717BC0000280300205A
:103810000148FEF711BC000070030020F0B50268FB
:10382000254C264D264E274F274B4FF0804CA0426B
:1038300009D0604507D0A84205D0B04203D0B842B5
:1038400001D0984204D122F0700E4A6842EA0E027A
:10385000A0421BD0604519D0A84217D0B04215D065
:10386000B84213D0984211D0184DA8420ED0184D2E
:10387000A8420BD0174DA84208D0174DA84205D03A
:10388000164DA84202D0164DA84203D122F440752D
:10389000CA682A434D6922F080022A4302608A687E
:1038A000C2620A688262A04201D0984201D10969CD
:1038B000016301214161F0BD0000014000040040AE
:1038C00000080040000C004000040140004001409E
:1038D000004401400048014000180040001C004026
:1038E0000020004010B501F01F030121046A994037
:1038F0008C430462016A9A401143016210BD10B505
:10390000846842EA032224F47F440A43224382600B
:1039100010BD826822F070020A4342F00701816004
:1039200070470000F0B5026A22F001020262036AE9
:1039300042688469124E24F073050C682C4323F00E
:1039400002058B682B430D4DA84201D0B04205D132
:1039500023F00807CB683B4323F00403A84201D0BF
:10396000B04205D14D6922F4407215438A692A4359
:1039700042608461496841630362F0BD0000014018
:1039800000040140F0B5026A22F010020262026AED
:10399000436884690D6824F4E64444EA05248D688C
:1039A00022F0200242EA05120F4D104EA84201D02B
:1039B000B04206D1CF6822F0800242EA071222F01C
:1039C0004002A84201D0B04207D14D6923F44063C0
:1039D00043EA85038D6943EA85034360846149684E
:1039E00081630262F0BD000000000140000401405C
:1039F000F0B5026A22F480720262026A4368C46906
:103A000022F4007224F073050C68124E2C438D686A
:103A100042EA05220E4DA84201D0B04206D1CF683D
:103A200022F4006242EA072222F48062A84201D016
:103A3000B04207D14D6923F4405343EA05138D6921
:103A400043EA05134360C4614968C1630262F0BD83
:103A5000000001400004014030B5026A22F48052A7
:103A60000262046A4268C3690D6823F4E64343EACC
:103A700005238D6824F4005444EA0534084DA84217
:103A800002D0084DA84204D14D6922F4804242EA96
:103A900085124260C36149680164046230BD000060
:103AA000000001400004014010B5036A046A24F0DC
:103AB00001040462846924F0F00444EA021423F04F
:103AC0000A020A438461026210BD10B5036A23F042
:103AD000100303628369046A23F4704343EA0232E9
:103AE00024F0A00343EA01118261016210BD0000CD
:103AF0000148FEF761BF00004804002010B5806B4C
:103B00000021C185C184FEF755FF10BD70B5846BDF
:103B10002068406994F83D10C0F3C01000252129A9
:103B200004D118B1E584204600F0B0F8206840695F
:103B300094F83E10C0F38010222904D118B1E58515
:103B4000204600F07CF8206C40F0100020642046F5
:103B5000FEF730FF70BD10B50146806B096809683B
:103B6000C9052FD40021C18501680C3151E8002F0F
:103B700022F4807241E80023002BF5D10168143152
:103B800051E8002F22F0010241E80023002BF5D17B
:103B90000168143151E8002F22F0400241E800236F
:103BA000002BF5D1202180F83E10016B012909D1AD
:103BB00001680C3151E8002F22F0100241E8002387
:103BC000002BF5D1016B012902D0FFF7E3F810BDFE
:103BD000818DFEF76BFD10BD10B5806B016B012967
:103BE00002D0FFF7D8F810BD818D4908FEF75EFDC1
:103BF00010BD10B50146806B09680968C90516D467
:103C00000021C1840168143151E8002F22F08002A4
:103C100041E80023002BF5D101680C3151E8002F59
:103C200042F0400241E80023002BF5D110BDFFF720
:103C300053F910BD10B5806BFFF75CF910BD01683A
:103C40000C3151E8002F22F4907241E80023002B40
:103C5000F5D10168143151E8002F22F0010241E84A
:103C60000023002BF5D1016B012909D101680C312A
:103C700051E8002F22F0100241E80023002BF5D17B
:103C8000202180F83E1000210163704701680C314B
:103C900051E8002F22F0C00241E80023002BF5D1AB
:103CA000202180F83D10704708B590F83E10222979
:103CB00001D0022008BD82684FF480539A4201D19E
:103CC000016921B1816A9A421BD04AB10AE00268B7
:103CD000816A5268C2F308020A80816A891C08E07E
:103CE000026972B10268526802F07F020A70816A4A
:103CF000491C8162C18D491E0904090CC18503D08C
:103D000019E002685268F1E70168CA6822F02002EF
:103D1000CA600168CA6822F48072CA6001684A6990
:103D200022F001024A61202180F83E10016B012936
:103D300003D0FFF72FF8002008BD002101630168C0
:103D40000C3151E8002F22F0100241E80023002B33
:103D5000F5D101680A68D20602D50A68496800915F
:103D6000818DFEF7A3FCE6E770B5044600680169A3
:103D7000E26821F44051114301612169A068E269C0
:103D800008436169114308432168CA6849F20C631A
:103D90009A430243CA6020684169A26921F44071D4
:103DA0001143416131492068884202D0304988423C
:103DB00002D1FDF7DFFC01E0FDF7CCFCE269002356
:103DC000192164253226B2F5004F626828D0A0FB85
:103DD0000101930F9200FCF767FA0146B0FBF5F082
:103DE0006FF01802504301EB800006EB0010B0FBAF
:103DF000F5F000F0F002B1FBF5F002EB0012B1FBC0
:103E0000F5F06FF01803584301EB800006EB00104B
:103E1000B0FBF5F000F00F0021681044886070BD21
:103E2000A0FB010192185B41FCF73EFA0146B0FB92
:103E3000F5F00201B1FBF5F06FF01803584301EB08
:103E4000800006EBC000B0FBF5F000F0F80002EBDC
:103E50004002B1FBF5F0584301EB800006EBC000D7
:103E6000B0FBF5F000F00700D6E7000000100140BD
:103E70000014014038B5816282850025134604464E
:103E80000564222084F83E00A26B1C48D063A26B1C
:103E90001B481064A26B1B48D064A06B0A460565E2
:103EA0002168A06B091DFDF763F92068016840686F
:103EB000009084F83C50206948B120680C3050E8EC
:103EC000001F41F4807140E80012002AF5D12068FB
:103ED000143050E8001F41F0010140E80012002AB0
:103EE000F5D12068143050E8001F41F0400140E84F
:103EF0000012002AF5D1002038BD0000573B000811
:103F0000D93B00080D3B00082DE9F04198461746C3
:103F10000E460446069D27E0681C25D02DB1FDF70E
:103F2000DFFAA0EB0800A8421ED920680C3050E848
:103F3000001F21F4D07140E80012002AF5D120685A
:103F4000143050E8001F21F0010140E80012002A5F
:103F5000F5D1202084F83D0084F83E00002084F84C
:103F60003C000320BDE8F0812068006836EA0000CC
:103F700004D00020B842CFD00020F3E70120F9E7B9
:103F8000FEE700002DE9F05FA948FDF735FF4FF48B
:103F900000494946A748FDF799FA00287ED0A64C6B
:103FA000E07A01287AD10021A148FEF7F5F9DFF87F
:103FB0008CA24FF0804609E09D48FDF7DDFE606968
:103FC0007063002204215046FDF785FA94ED160A2D
:103FD000D4ED1A0AB4EEE00AF1EE10FAECD3E07870
:103FE0000025974F4FF47A7B01287DD19048FDF74B
:103FF00016FF756394ED1A0A012284ED160A20213A
:104000003846FDF768FA012210213846FDF763FAB9
:10401000012249463846FDF75EFAA069D3E084489C
:10402000FDF7AAFE60697063012204215046FDF786
:1040300052FA00BF94ED160AD4ED1B0AB4EEE00A62
:10404000F1EE10FAEBD32079A04601281AD1784876
:10405000FDF7E5FE756398ED1A0A584688ED160AD5
:1040600088F8035088F80450FDF7BAF80AE0704861
:10407000FDF782FED8F81400706300220421504638
:10408000FDF729FA98ED160AD8ED1B0AB4EEE00AFE
:10409000F1EE10FAEBD398F8040000E0C6E0012836
:1040A0003DD16348FDF7BBFE756398ED1A0A012206
:1040B00088ED160A88F8045020213846FDF70BFADF
:1040C000012208213846FDF706FA01224946384602
:1040D000FDF701FAD8F81800B06341F28830FDF717
:1040E0007FF80022202100E082E03846FDF7F3F956
:1040F000002208213846FDF7EEF9002249463846ED
:10410000FDF7E9F9B5630AE04948FDF735FED8F84F
:1041100014007063012204215046FDF7DCF998ED8C
:10412000160AD8ED1B0AB4EEE00AF1EE10FAEBD352
:1041300098F8040001280CD13D48FDF770FE756326
:1041400098ED1A0A584688ED160A88F80450FDF7CB
:1041500047F898F80500401CC0B288F8050002280E
:104160000BD349E03248FDF707FED8F8140070631E
:10417000002204215046FDF7AEF9D8ED160A98ED5D
:104180001B0AF4EEC00AF1EE10FAEBD398F8040023
:1041900001282DD12648FDF742FE756398ED1A0AD5
:1041A000012288ED160A20213846FDF794F90122F4
:1041B00010213846FDF78FF9012249463846FDF7B0
:1041C0008AF9D8F81800B06341F28830FDF708F892
:1041D000002220213846FDF77EF9002210213846C2
:1041E000FDF779F9002249463846FDF774F9B563C1
:1041F00060790228FFF41EAF002220213846FDF727
:104200006AF9002208213846FDF765F900221021DD
:104210003846FDF760F9C820FCF7E2FF0022494666
:104220003846FDF758F9B5636571E572BDE8F09F52
:104230005002002000080240000000200000024060
:10424000000C024003B401984100009850EAC120DC
:1042500018BF04204A0D18BF40F0010040F2FF7261
:10426000B2EB515F08BF40F00200012808BF0520F3
:1042700002B070470907090E002804DB00F1E020B6
:1042800080F80014704700F00F0000F1E02080F883
:10429000141D70470000000070B5D94B00242DEDAF
:1042A000020B2DED108BDDE91010984205DA20F09D
:1042B00000429A4201D809D141B19DED100BBDECED
:1042C000108B02B0BDE8704001F086B8B0F5801FD9
:1042D00026DA11430BD0002813DA0120FCF78AF804
:1042E000BDEC108B02B0BDE8704001F089B802202F
:1042F000FCF780F801F058F851EC100B01F0BDFC10
:104300009EE06FF035049FEDC00B53EC102B9DED3C
:10431000100B51EC100B01F0D5FFCDE91001084650
:1043200004EB2051C0F31304B948A1F2FF3120443B
:1043300000F4801080F07F6282F04052224301EB53
:1043400020559FEDB50B119253EC102B9DED100BEA
:1043500051EC100B02F0C2F941EC180BA01CC0F399
:1043600013009FEDAFDB9FEDB0EBB14E7E44032811
:104370006CD296ED000B51EC180B53EC102B01F0A6
:10438000CFFE1DD1002D01BF96ED000BBDEC108BB3
:1043900002B070BD284601F02EFF41EC180B53EC23
:1043A0001D2B01F08FFF41EC190B53EC1E2B51EC30
:1043B000180B01F087FF53EC192B01F09DFC3FE037
:1043C0009FED9D0B51EC180B53EC102B01F07AFF75
:1043D0009FED9B1B53EC112B02F0A8F841EC190B3D
:1043E00053EC182B51EC180B01F06CFF53EC192B0C
:1043F00001F068FF41EC190B002D04BF53EC192BA1
:1044000051EC180B1AD0284601F0F5FE41EC1A0BBE
:1044100053EC1D2B01F056FF53EC192B02F086F8DC
:1044200053EC182B02F05AF941EC180B53EC1E2BED
:1044300051EC1A0B01F046FF53EC182B02F04EF929
:10444000BDEC108B02B041EC100B70BD9FED7E0BEC
:1044500051EC180B53EC102B01F04EFC41EC100BFF
:1044600051EC180B53EC102B01F002FD41EC190B31
:10447000284601F0C0FE41EC1B0B53EC192B51EC0C
:10448000190B01F01FFF41EC1A0B714853EC1A2B6A
:10449000261851EC1A0B01F015FF41EC1F0B6D486B
:1044A000C4F1510404F5D724B0EE4F0AF0EE6F0AC0
:1044B0000321784400F0FCFE53EC1F2B51EC100B51
:1044C00001F000FF41EC1C0B6348B0EE4F0AF0EE28
:1044D0006F0A0421784400F0EBFE53EC1A2B51ECE8
:1044E000100B01F0EFFE344353EC1C2B01F004FCE5
:1044F00041EC1C0B002C4CDD9FED510B51EC180BCB
:1045000053EC102B01F0DEFE53EC182B01F0DAFE19
:1045100041EC1A0B55B353EC1D2B51EC1B0B01F066
:10452000D1FE41EC1D0B53EC1C2B51EC1A0B01F08E
:10453000E3FB53EC192B01F0C5FE53EC1D2B01F0EE
:10454000DBFB53EC1A2B01F0F1FF53EC182B02F0BC
:10455000C5F841EC180B53EC1E2B51EC1B0B01F072
:10456000B1FE53EC182B02F0B9F869E753EC1C2BA1
:1045700051EC1A0B01F0C0FB53EC192B01F0A2FE19
:1045800053EC1A2B01F0D2FF53EC182B01F0CEFFA5
:1045900056E735B353EC1D2B51EC1B0B01F092FE8B
:1045A00041EC1A0B53EC1C2B51EC180B02F096F853
:1045B00053EC192B01F086FE53EC1A2B02F08EF807
:1045C00053EC182B02F08AF841EC180B53EC1E2B1D
:1045D00051EC1B0B01F076FE53EC182B02F07EF829
:1045E0002EE753EC1C2B51EC180B02F077F853EC30
:1045F000192B01F067FE53EC182B01F097FF1FE712
:104600000000F07F000000000000000000005043A8
:10461000645F090000000000000000000000F03F9F
:10462000763C7935EF39EA3D0000E0FE422EE63F68
:104630000828000000000000555555555555D53F38
:10464000000000000000E03F00000000000000400B
:1046500086EBF9FF02260000F825000000000000AC
:104660002DE9F04D2DED040B2DED0E8B96B0DDE90F
:104670002550279CDDF890A025F0004624F0004846
:10468000BAF1000F14BF0121002101EB4502FC49E2
:1046900053184A1093422AD3002814BF0123002341
:1046A00003EB44030B44F7498B4220D358EA000143
:1046B0009FEDF59B76D0DFF8D8B35D4503D1BAF115
:1046C000000F05D188E0BAF1000F08BF002100D02B
:1046D000012101EB450111F5001F08D8002814BF86
:1046E0000121002101EB440111F5001F0BD99DEDC3
:1046F000261B9DED240B16B0BDEC0E8B04B0BDE85F
:10470000F04D00F073BE0027002DBCBFE149884585
:1047100021DAE1498845A8BF02271CDAC3451ADC23
:10472000DE4901EB2851142908DDC1F1340220FAD9
:1047300002F101FA02F282420DD108E058B9C1F14A
:10474000140228FA02F101FA02F2424503D101F003
:104750000101C1F1020756EA0A0124D1002C22DA34
:10476000002D18BF022F01D0012F0AD00220FBF725
:1047700041FE16B0BDEC0E8B04B0BDE8F04D00F06C
:1047800013BE0220FBF736FE00F00EFE51EC100BBC
:1047900001F073FA41EC100B16B0BDEC0E8B04B0B7
:1047A000BDE8F08D18E09FEDBEAB9FEDBF8B0028FC
:1047B00071D1B848804522D105F1804010F58010B4
:1047C00008BFBAF1000F07D0B3450ADC002CA8BF20
:1047D0009DED260BE0DA0DE0B0EE490AF0EE690A35
:1047E000DAE7002C06DA9DED260B51EC100B01F0F8
:1047F00044FA6FE0AE48784490ED000BCCE7D84522
:104800004DD1002C48DA2EB186423AD1BAF1000FD0
:1048100042D126E0BAF1000F13D00220FBF7EAFDE7
:1048200000F0FEFD8DED020B9DED240B8DED000BD8
:1048300010EE900A039961F31E0003909DED020BA8
:10484000AAE78DED02AB9DED240B1AEE901A10EE47
:10485000900A8DED000B61F31E0003909DED020B9D
:104860009AE78DED028B9DED240B18EE901A10EE59
:10487000900A8DED000B61F31E0003909DED020B7D
:104880008AE709DA9DED240B51EC190B53EC102B40
:1048900001F0EEFA1EE020E09DED240B7CE786425D
:1048A0001BDAB4F1804F0DD0A4F10050B0F1FF50ED
:1048B00013D1002D11DB9DED240B51EC100B01F0F9
:1048C000A5F907E09DED240B53EC102B51EC100BD8
:1048D00000F0C2BC41EC100B5EE79DED240B51ECE7
:1048E000100B00F0BDFDBAF1000FCDE90E0142D171
:1048F0009FED710B46B3A6F1E040B0F17F600CD0A4
:104900005E4538D1002D00DAA7B3022F0CBF01207D
:104910004FF0FF3001F06FFCDCE7002D01DD002CD3
:104920000DDA002D01DD002C1FDB002D16DA002C26
:1049300014DB012F08BF9FED620B3FF42DAFB0EEEB
:104940004A0AF0EE6A0A27E7022F18BF002D0CD0A2
:10495000012F0AD1002DFFF61FAF06E0002DB8BFD2
:10496000002C08DA012F3FF417AFB0EE480AF0EE42
:10497000680A11E71BE0012000EBE57050EA07012F
:1049800015D0791EB0EE498AF0EE698A084308BF57
:104990009FED4D8B4E480025804570DD4D494E48BA
:1049A000884514DDB0420DDB002C19DB2FE001201F
:1049B000FBF720FD16B0BDEC0E8B04B0BDE8F04D4A
:1049C00000F01EBDB34502DC002C09DC1FE086426E
:1049D00002DA002C1BDA03E05E452BDD002C16DD2D
:1049E0000220FBF707FD00F01BFD8DED020B53ECE1
:1049F0001A2B51EC180B01F065FCCDE9000103996D
:104A0000019861F31E0003909DED020BC4E60220A5
:104A1000FBF7F0FC00F014FD10EE901A18EE900A6F
:104A20008DED020B8DED008B61F31E0003909DED6B
:104A3000020BB1E69DED0E0B53EC192B51EC100B54
:104A400001F04CFE9FED260BCDE9080153EC102B35
:104A50009DED080B51EC100B01F034FC9FED221B77
:104A600053EC112B01F062FD9DED081B53EC112B53
:104A700001F028FC9FED1E1B53EC112B3CE08CE059
:104A8000FFFF1F00FFFF0F00000000000000F03FCD
:104A90000000F03F0000F07F0000404301FCFFFFFA
:104AA000000000000000F07F000000000000000097
:104AB0007E230000000000000000000000000080D5
:104AC000000000000000F0FF000000000000F0BF48
:104AD0000000E0410000F043FFFFEF3F0000000056
:104AE000000000000000D03F555555555555D53FA5
:104AF000000000000000E03F01F018FD9DED080BF4
:104B000041EC1A0B53EC102B51EC100B01F0DAFBBB
:104B100053EC1A2B01F0D6FB41EC1A0B9FEDFE0B68
:104B200053EC102B9DED080B51EC100B01F0CAFB60
:104B300041EC1B0B9FEDFA0B51EC1A0B53EC102BB5
:104B400001F0C0FB41EC1A0B9FEDF70B53EC102B5F
:104B50009DED080B51EC100B01F0B4FB53EC1A2B3C
:104B600001F0BCFD41EC1A0B51EC1B0B53EC1A2B62
:104B700001F0C2F80690CDE906519DED060B53EC0D
:104B80001B2B51EC100B01F0A9FD53EC1A2B01F07B
:104B9000CDFC41EC100B00F0A1B90020B6F5801F50
:104BA0000EDA9FEDE30B53EC102B9DED0E0B51EC49
:104BB000100B01F087FBCDE90E016FF034000E46BB
:104BC00000EB2650A0F2FF37C6F31300DA4940F09D
:104BD0007F6646F040568842D8BF002408DDD7499A
:104BE0008142C8BF012403DC0024A6F580167F1C87
:104BF000D348784400EBC4000F9690ED00CB9DEDB8
:104C00000E0B53EC1C2B51EC100B01F067FD9DEDCE
:104C10000E0B41EC1B0B53EC1C2B51EC100B01F059
:104C20006BF841EC100B51EC190B53EC102B01F00D
:104C30001FF941EC1D0B51EC1B0B53EC1D2B01F02C
:104C400041FB41EC1A0BBF488DED10AB7844109539
:104C500090ED000B4FF0005040EA660000EB8440FE
:104C60008DED080B00F5002009909DED080B53EC2D
:104C70001C2B51EC100B01F031FD9DED0E1B53EC84
:104C8000112B01F053FC41EC100B53EC102B9DED5C
:104C9000100B51EC100B01F015FB9DED080B41ECD6
:104CA0001C0B53EC102B9DED100B51EC100B01F075
:104CB00009FB53EC1B2B01F039FC53EC1C2B01F0CE
:104CC0000DFD53EC1D2B01F0FDFA41EC1C0B53ECD8
:104CD0001A2B51EC1A0B01F0F5FA41EC1B0B9A4818
:104CE0000621B0EE4B0AF0EE6B0A784400F0E0FAD1
:104CF000B0EE401AF0EE601AB0EE41DAF0EE61DA92
:104D000053EC1B2B51EC1B0B01F0DCFA53EC1D2B6D
:104D100001F0D8FA9DED100B41EC1B0B53EC1A2B54
:104D200051EC100B00F0E8FF53EC1C2B01F0CAFA19
:104D300053EC1B2B00F0E0FF9DED100B41EC1B0B27
:104D400053EC102B51EC100B01F0BCFA41EC1D0B95
:104D50009FED7FEB53EC1E2B00F0CEFF53EC1B2B93
:104D600000F0CAFF0890CDE908519DED080B53EC07
:104D70001E2B51EC100B01F0B1FC53EC1D2B01F07C
:104D8000ADFC53EC1B2B01F0D1FB9DED080B41EC6E
:104D90001D0B53EC102B9DED100B51EC100B01F083
:104DA00091FA41EC1B0B53EC1A2B51EC1D0B01F04B
:104DB00089FA9DED080B41EC1A0B53EC102B51ECCA
:104DC0001C0B01F07FFA53EC1A2B00F095FF41EC1D
:104DD0001A0B51EC1B0B53EC1A2B00F08DFF0C90AF
:104DE000CDE90C519DED0C0B53EC1B2B51EC100B32
:104DF00001F074FC53EC1A2B01F098FB41EC1B0BF7
:104E00009FED550B53EC102B9DED0C0B51EC100B43
:104E100001F058FA41EC1A0B9FED510B51EC1B0BB2
:104E200053EC102B01F04EFA41EC1B0B9FED4E0B97
:104E300053EC102B9DED0C0B51EC100B01F042FAD2
:104E400053EC1B2B00F058FF41EC100B4848784402
:104E500000EBC40090ED001B51EC100B53EC112B38
:104E600000F04AFF41EC1B0B384601F0C4F9CDE9D4
:104E7000080153EC1B2B51EC1A0B00F03DFF41ECE9
:104E8000100B3C48784400EBC40090ED00CB51EC93
:104E9000100B53EC1C2B00F02FFF9DED081B53EC67
:104EA000112B00F029FF0690CDE906519DED080B6E
:104EB00053EC102B9DED060B51EC100B01F00EFC8A
:104EC00053EC1C2B01F00AFC53EC1A2B01F006FCEE
:104ED00053EC1B2B01F02AFB41EC100B9DED261B24
:104EE00053EC102B8DED001B00959DED260B51EC26
:104EF000100B01F0E7F99DED000B41EC1A0B53ECA0
:104F0000102B9DED260B51EC100B01F0E7FB9DEDF6
:104F1000061B53EC112B2FE0000000604715F73FF4
:104F2000FE822B654715F73F44DF5DF80BAE543E1C
:104F300000000000000040438E9803007AB60B008A
:104F4000FA1E0000281F0000321E000000000000B2
:104F50000000000000000840000000E009C7EE3F2C
:104F6000FD033ADC09C7EE3FF5015B14E02F3EBEBE
:104F7000BE1C0000781C000001F0A4F953EC1A2BB1
:104F800000F0BAFE9DED060B41EC1A0B53EC102B12
:104F90009DED000B51EC100B01F094F9CDE90C01E3
:104FA0009DED0C0B51EC1A0B53EC102B00F0A4FEF2
:104FB000CDE902010C46AA498C422FDB611A084355
:104FC00018D19DED0C0B53EC102B9DED020B51EC09
:104FD000100B01F083FB41EC1B0B9FEDA30B51EC7D
:104FE0001A0B53EC102B00F087FE53EC1B2B01F037
:104FF00067FA2DD20220FBF7FDF900F011FA10EE4E
:10500000901A18EE900A8DED020B8DED008B61F376
:105010001E0003909DED020BFFF7BEBB944A24F0E7
:105020000041914214D39349214408437FF4EFACEB
:105030009DED0C0B53EC102B9DED020B51EC100B66
:1050400001F04CFB53EC1A2B01F03AFA7FF6DFAC7F
:1050500024F000408849894A002601EB2051824211
:105060002BDA481C4FF4801121FA00F02044844AC6
:10507000C0F30A517A44A1F2FF3192ED000B814A4C
:105080008DED080BCA4020EA0202C0F3130040F481
:105090008010C1F1140120FA01F60992002CB8BF6A
:1050A00076429DED080B53EC102B9DED0C0B51EC53
:1050B000100B01F013FBCDE90C019DED0C0B51EC35
:1050C0001A0B53EC102B00F017FE9FED6F0B08909E
:1050D000CDE9085153EC102B9DED080B51EC100B52
:1050E00001F0F0F841EC1B0B9FED690B53EC102B1A
:1050F0009DED080B51EC100B01F0E4F89DED0C0B4D
:1051000041EC1C0B53EC102B9DED080B51EC100BDC
:1051100001F0E4FA53EC1A2B01F008FA9FED5E1B44
:1051200053EC112B01F0CEF853EC1C2B00F0E4FDF6
:1051300041EC1A0B51EC1B0B53EC1A2B00F0DCFD6D
:10514000CDE902019DED020B53EC1B2B51EC100B32
:1051500001F0C4FA53EC1A2B01F0E8F99DED020BB3
:1051600041EC1A0B53EC102B51EC100B01F0AAF888
:10517000CDE908014A489DED080B0521784400F06F
:1051800097F89DED081B51EC100B53EC112B01F01F
:1051900099F89DED021B53EC112B01F0C7F9CDE9F5
:1051A00006019DED020B53EC1A2B51EC100B01F094
:1051B00089F853EC1A2B00F09FFD9FED3B0B41EC5F
:1051C0001A0B53EC102B9DED060B51EC100B01F05C
:1051D00085FA9DED060B41EC1B0B53EC102B9DED5E
:1051E000020B51EC100B01F06DF853EC1B2B00F08F
:1051F0003FFE53EC1A2B01F071FA9DED021B53ECAC
:10520000112B01F06BFA53EC192B01F08FF9CDE95A
:10521000020101EB065001150029C8BF039015DCFF
:105220009DED020B324651EC100B01F0EEFBFFF747
:1052300009F8042808BF00F003F932469DED020B7F
:1052400051EC100B01F0E1FBCDE902019DED020BE9
:1052500051EC180B53EC102B01F034F8FFF73ABB6C
:105260000000904000000000FE822B654715973C2F
:1052700000CC904000346F3F01FCFFFF0000E03F96
:10528000001B0000FFFF0F0000000000432EE63F60
:10529000396CA80C615C20BEEF39FAFE422EE63F65
:1052A000D0190000000000000000000000000040D5
:1052B00070B504462DED028B4D1E00EBC500B0EE1F
:1052C000408AF0EE608A90ED000B35F0060017D0B2
:1052D00053EC182B51EC100B00F0F4FF41EC100BC9
:1052E0006D1E04EBC50090ED001B51EC100B53EC50
:1052F000112B00F001FD41EC100B35F00600E7D159
:10530000022D36D0042D1CD0062D1CBFBDEC028B07
:1053100070BD53EC182B51EC100B00F0D3FF94ED43
:105320000A1B53EC112B00F0E7FC53EC182B00F098
:10533000C9FF94ED081B53EC112B00F0DDFC41EC90
:10534000100B53EC182B51EC100B00F0BBFF94ED3D
:10535000061B53EC112B00F0CFFC53EC182B00F084
:10536000B1FF94ED040B53EC102B00F0C5FC41ECA5
:10537000100B53EC182B51EC100B00F0A3FF94ED25
:10538000021B53EC112B00F0B7FC53EC182B00F070
:1053900099FF94ED001B53EC112B00F0ADFCBDEC1C
:1053A000028B41EC100B70BD9FED070B10B553EC59
:1053B000102B9FED070B51EC100B00F059FD41EC49
:1053C000100B10BD000000000000000000000000F5
:1053D000000000000000F03F10B553EC102B51EC22
:1053E000100B00F089FC41EC100B10BD10B553EC14
:1053F000112B51EC100B00F07FFC41EC100B10BD99
:105400009FED050B10B553EC102B51EC100B00F079
:105410002FFD41EC100B10BD00000000000000004B
:105420009FED050B10B553EC102B51EC100B00F059
:1054300049FF41EC100B10BD00000000000000709F
:105440009FED050B10B553EC102B51EC100B00F039
:1054500039FF41EC100B10BD0000000000000010EF
:1054600082B0CDE9000121F0004001909DED000BDC
:1054700002B051EC100B70471CB5FCF73FF8FEF77B
:1054800063F9FDF7B1FDFDF781FDFDF78BFEFDF73B
:1054900053FEFDF731FDFDF719FFFDF7D7FEFDF7D0
:1054A00049FFFDF77BFF4F484D4900240160532120
:1054B000C0E901144FF6FF71C0E903148021816136
:1054C000FCF7ACFB08B172B6FEE7464846494830E7
:1054D00001604FF4E131C0E901140C21C460C0E95E
:1054E00004418461C461FDF79BFB08B172B6FEE71D
:1054F0003C48009490383D490194016040F24731A6
:10550000C0E9011446F2A7118461C160FCF786FB73
:1055100008B172B6FEE733480094694690380194AA
:10552000FCF734FB08B172B6FEE73148FBF762FBCB
:105530002F4800219030FCF72FFF2D480421903098
:10554000FCF72AFF2B48FCF717FC2A4808214838AB
:10555000FCF722FF27480C214838FCF71DFF25489F
:105560004830FCF709FC1F48FCF706FC20480021E6
:105570004830FCF7DBFC1B489038FCF7FDFB1C486F
:105580009030FCF739FC1D4C1B4DA563FBF782FEE8
:105590001B490020A26B12F8013B0B54401CA26374
:1055A0000428F7DD0878A0624878642210FB02F234
:1055B00012488038642382818A7812FB03F2C28108
:1055C000C97811FB03F10182A563FBF71BFE00BF45
:1055D000FDF790FFFEF7D6FCFBF790F8F8E7000028
:1055E000004801400004002000500040001000402E
:1055F000C0010020E002002000000108800000201F
:10560000CC06002010B543482DED028B008800F039
:1056100009FE41EC100B53EC102B9FED3F0B51ECAE
:10562000100B00F025FC9FED3E8B53EC182B01F086
:1056300055F841EC100B53EC102B9FED3B0B51EC4C
:10564000100B00F015FC00F025FB324C983CE06498
:1056500001F02EF941EC100BFEF71EFE51EC100B81
:1056600000F018FB00EE100A9FED311ADFED310A51
:1056700040EE010A9FED301A20EE011A21EE001AC9
:1056800041EE000A10EE900A01F012F941EC100B05
:1056900051EC180B53EC102B00F0EAFB9FED271B8D
:1056A00053EC112B01F01AF800F0F4FA00EE100A96
:1056B000A4F18000234A80ED070A816A02EB81028F
:1056C000491C82ED000AD0ED0C0A642930EE200A54
:1056D00080ED0C0A81620BDB0021DFED1B0A816289
:1056E00080EE201A9FED190A84ED151A80ED0C0A40
:1056F000DFED170A94ED150AFDF77AFE94ED180A0E
:105700001449BCEEC00A10EE100A0860BDEC028B12
:1057100010BD0000180100200000000000FEAF4096
:10572000000000000000F03F000000000088C340BF
:1057300098A98839BDAE603AFC110434000000001D
:10574000001871408C0400200000C84200000000D6
:105750000000B8423C04004070B52A482A4DA0F52C
:105760008C728188116700EE101AD2ED1F0A92ED3B
:105770001D1AB8EEC00A983892ED1E2A00F1800476
:1057800030EE600A60EE011A00EE101A90ED001A79
:10579000B8EEC00A71EE600A31EE400A42EE001A1D
:1057A00081EEA00A84ED010A436805EB83015B1CCE
:1057B00081ED000A4360002281680AE005EB820661
:1057C000D0ED030A96ED000A521C30EE200A80ED5F
:1057D000030A8A42F2DB8B4201DB0022426000EEC8
:1057E000101AD0ED030AB8EEC01A80EE810AF2EE6C
:1057F000040A20EE200A84ED020A9FED040A80EDDF
:10580000030A70BD180100206C0600200000000093
:1058100070B547482DED028B408800F003FD41EC48
:10582000100B53EC102B9FED430B51EC100B00F0C1
:105830001FFB9FED428B53EC182B00F04FFF41EC08
:10584000100B53EC102B9FED3F0B51EC100B00F0A5
:105850000FFB00F01FFA364C983C206501F028F849
:1058600041EC100BFEF718FD51EC100B00F012FA92
:1058700000EE100A9FED351ADFED350A40EE010A01
:105880009FED341A20EE011A21EE001A41EE000AB3
:1058900010EE900A01F00CF841EC100B51EC180BD3
:1058A00053EC102B00F0E4FA9FED2B1B53EC112B63
:1058B00000F014FF00F0EEF9A4F18001284B08621B
:1058C000CA6A43F82200521CCA62002091ED090AFC
:1058D0000BE000BF03EB800591ED0D1AD5ED000A3A
:1058E000401C70EE810AC1ED0D0A00EE900AB8EE80
:1058F000E01AF0EE400AB4EEE01AF1EE10FAE9D345
:1059000000EE902AF8EEE00AF4EEC00AF1EE10FA8A
:1059100001DB0020C862D1ED0D0A80EE801A9FEDF8
:10592000110A84ED161A81ED0D0ABDEC028B70BDD3
:10593000180100200000000000FEAF400000000041
:105940000000F03F000000000088C34098A988399B
:10595000BDAE603AFC110434000000000018714034
:105960001C0600200000000070B5924C2DED068B47
:105970009FED918B9FED929B606A04F18005E8BBDF
:10598000B0EE481AF0EE681AB0EE490AF0EE690A75
:10599000FEF766FEB0EE40AAF0EE60AA606D00F081
:1059A00087FF53EC1A2B00F08DFC00F0F5FBB0EEF6
:1059B000481AF0EE681AB0EE490AF0EE690AE8609B
:1059C000FEF74EFEB0EE401AF0EE601AB0EE41AABD
:1059D000F0EE61AAA86800F06BFF53EC1A2B00F000
:1059E00071FC00F0D9FB2861AA8904F19E01130A19
:1059F0008B71CA71020A8A73C87300E003E0102237
:105A00007148FDF723FA606A02287DD1694E803E15
:105A1000707800285BD1B0EE481AF0EE681AB0EE4C
:105A2000490AF0EE690AFEF71BFEB0EE40AAF0EE5E
:105A300060AA206C00F03CFF53EC1A2B00F042FCF3
:105A400000F0AAFBB0EE481AF0EE681AB0EE490A70
:105A5000F0EE690A6861FEF703FEB0EE40AAF0EED0
:105A600060AAA86800F024FF53EC1A2B00F02AFC6F
:105A700000F092FBB0EE481AF0EE681AB0EE490A58
:105A8000F0EE690A2861FEF7EBFDB0EE40AAF0EEF9
:105A900060AA606D00F00CFF53EC1A2B00F012FCB2
:105AA00000F07AFBE860AA8A06F5AE71130A8B71E2
:105AB000CA712A8A130A8B73CA73020A8A75C87557
:105AC00028224148FDF7C2F9606A02286ED1707839
:105AD00001286BD1B0EE481AF0EE681AB0EE490A10
